:020000040800F2
:10000000700600209D01000837190008B913000888
:1000100035190008D3080008892D000800000000E9
:10002000000000000000000000000000692300083C
:10003000D10D000800000000F11A0008D52A0008C0
:10004000B7010008B7010008B7010008B7010008B0
:10005000B7010008B7010008BD100008B70100088B
:10006000B7010008B7010008B7010008B701000890
:10007000B7010008B7010008B7010008B701000880
:10008000B7010008B7010008B7010008B701000870
:10009000652D0008B7010008B7010008B701000886
:1000A000B7010008B7010008B7010008B701000850
:1000B000B7010008B7010008B7010008B701000840
:1000C000B7010008B7010008B7010008B701000830
:1000D000B7010008B7010008B7010008B701000820
:1000E000B7010008B7010008792B0008B701000824
:1000F000B7010008B7010008B7010008B701000800
:10010000000000000000000000000000B70100082F
:10011000B7010008B7010008B7010008B7010008DF
:10012000B7010008B7010008B7010008B7010008CF
:10013000B7010008B701000800000000000000003F
:10014000B7010008B7010008B7010008000000006F
:10015000000000000000000000000000000000009F
:100160000000000000000000B7010008B70100080F
:10017000B7010008000000000000000000000000BF
:1001800000000000B7010008DFF80CD000F054FBBD
:1001900000480047F94000087006002006488047E4
:1001A00006480047FEE7FEE7FEE7FEE7FEE7FEE75C
:1001B000FEE7FEE7FEE7FEE7F52A000889010008F2
:1001C000421C10F8011B0029FBD1801A70472DE951
:1001D000FE4F804681EA0300C00F0C46009021F0DC
:1001E000004123F00045B8EB0200A94105D240468A
:1001F000214690461C460B46024623F00040104321
:1002000047D0270DC7F30A00C3F30A510290401AE2
:10021000019040286BDAC3F3130040F4801B009870
:10022000924620B10023D2EB030A63EB0B0B01983B
:100230005946C0F14002504600F0C7F906460D4647
:1002400050465946019A00F0CFF910EB0800614181
:10025000002487EA115284EAE7731A4340D0009AD7
:1002600062B3019A012A4FEA075215DC001B61EBC9
:1002700002014FF0004202EA0752CDE90042001CA1
:1002800041F5801132462B4600F006FA03B0BDE876
:10029000F08F40462146F9E7001B61EB0201001C8C
:1002A00041F5801300185B412018A2F5001747EBB9
:1002B000030140EAD570B6196D4111E06D084FEAAF
:1002C000360645EAC0754FEA0752001B61EB020192
:1002D000001C41F5801149084FEA300000195141D6
:1002E00032462B4603B0BDE8F04F00F0C6B9009887
:1002F000012240000023D0EB020263EBE073009880
:1003000021464FEAE074B8EB000061EB0401E9E735
:1003100083F000435BE781F0004158E72DE9FE4F91
:1003200081EA030404F0004421F0004100944FF0FE
:10033000000B23F0004350EA01045ED052EA0304AC
:100340005BD0C3F30A54C1F30A552C44A4F2F3342E
:100350000194A0FB0254C1F3130141F48011C3F3D3
:10036000130343F4801301FB024400FB034E840A91
:10037000970A44EA815447EA8357A4FB0768029529
:100380008D0A05FB07854FEA932C04FB0C542705C7
:10039000029D4FEA065847EA1637B5EB08056EEBA3
:1003A000070C870E920E47EA811742EA8312A7FBD9
:1003B0000201B6EB0B0164EB00042B0D43EA0C3396
:1003C0005E1844EB1C50DA465146E7FB0201C5F3C8
:1003D00013044FEA0B3343EA14534FEA0432019CEF
:1003E00043EA0603A4F10C040294009CCDE900B496
:1003F00000F052F903B0BDE8F08F00200146F9E7A4
:100400002DE9F04D81EA030404F0004B21F0004592
:1004100014464FF0000A23F0004150EA050220D0B4
:1004200054EA01021DD0C5F30A570246C5F313036F
:10043000C1F31300C1F30A5640F4801543F480134E
:10044000A7EB0608101BD64608F2FD3873EB050033
:1004500002D308F1010801E092185B41B8F1000FE6
:1004600003DA00200146BDE8F08D00204FF4801132
:10047000064684460EE0171B73EB050705D3121BD7
:1004800063EB050306434CEA010C49084FEA3000D0
:1004900092185B4150EA0107EDD152EA030012D0F5
:1004A00082EA040083EA0501084305D0101BAB4132
:1004B00006D20122002306E000224FF0004302E0B2
:1004C0006FF0010253101AEB06004CEB085110EBD1
:1004D0000A0041EB0B01BDE8F04D00F0CEB800F092
:1004E000004230F000400AD0C10D01F56071C0F348
:1004F000160042EA0151C20840071143704700202C
:100500000146704701F0004330B421F0004150EA49
:10051000010206D00A0DA2F56072C1F31301002A90
:1005200002DC30BC00207047440F44EAC104C10023
:10053000E01830BC00EBC25000F068B830B50B4694
:10054000014600202022012409E021FA02F59D4203
:1005500005D303FA02F5491B04FA02F52844151ED7
:10056000A2F10102F1DC30BD2DE9F05F054600206B
:1005700092469B4688460646814640241BE0284614
:1005800041464746224600F069F953465A46C01A8A
:10059000914110D311461846224600F016F82D1A44
:1005A00067EB01084F4622460120002100F00DF8BC
:1005B00017EB00094E41201EA4F10104DFDC484680
:1005C00031462A464346BDE8F09F202A04DB203A04
:1005D00000FA02F1002070479140C2F1200320FA96
:1005E00003F3194390407047202A06DBCB17203ACB
:1005F00041FA02F043EAE07306E041FA02F3D04028
:10060000C2F1200291400843194670470029A8BF53
:100610007047401C490008BF20F00100704710B42B
:10062000B0FA80FC00FA0CF050EA010404BF10BCE0
:10063000704749B1CCF1200421FA04F411FA0CF10D
:1006400018BF012121430843A3EB0C01CB1D4FEA46
:1006500000614FEA102042BF002010BC704700EB41
:10066000C35010440029A4BF10BC7047401C49006F
:1006700008BF20F0010010BC704710B5141E73F1C4
:10068000000408DA401C41F1000192185B411A4352
:1006900001D120F0010010BD2DE9F04D92469B469E
:1006A00011B1B1FA81F202E0B0FA80F22032904644
:1006B000FFF78BFF04460F4640EA0A0041EA0B01B0
:1006C00053465A46084313D0114653EA010019D045
:1006D000C8F14002504600F0C1F805460E465046AB
:1006E00059464246FFF771FF084305D0012004E058
:1006F00020463946BDE8F08D0020054346EAE07605
:100700002C4337430A986305E40AA0EB0800002253
:10071000FD0A44EA47540A3002D500200146E9E7C1
:10072000010510196941DDE9084500196941BDE875
:10073000F04DA2E72DE9F04D00231A461B1A8A411D
:1007400003DB00200146BDE8F08DC1F30A52C1F37E
:10075000130141F480154FF0000BD10702D10018AE
:100760006D41521E0027044640F2FF11384601EB4E
:10077000620A3E468046024600204FF4801100F097
:100780006DF8C2197141BB1846EB0100B4EB030CC4
:1007900075EB000C04D3E41A65EB000517460E4612
:1007A000241908F101006D4180463428E3DDF91970
:1007B00046EB0600091BA84103D24FF0FF32134657
:1007C00001E0002213461BEB070046EB0A51BDE88F
:1007D000F04DFFF752BFC1F30A52C1F3130140F2CB
:1007E000FF3341F480119A4202DA0020014670473B
:1007F00040F233439A42A2F2334202DC524200F00A
:100800002DB8FFF7E2BE000030B5041E71F1000400
:1008100004DB4FF00044404264EB0101141E73F10D
:10082000000405DB1C464FF00043524263EB040317
:10083000994208BF904230BD064C074D06E0E06883
:1008400040F0010394E8070098471034AC42F6D317
:10085000FFF79EFC0044000820440008202A04DB27
:10086000203A21FA02F00021704721FA02F3D04029
:10087000C2F12002914008431946704770B58C18A8
:1008800010F8015B15F0070301D110F8013B2A11A4
:1008900006D110F8012B03E010F8016B01F8016B91
:1008A0005B1EF9D12B0705D40023521E0DD401F88D
:1008B000013BFAE710F8013BCB1A921C03E013F856
:1008C000015B01F8015B521EF9D5A142D8D300208B
:1008D00070BDFEE7C1B2000A40EA01207047000087
:1008E00010B50C4640290FD2084A0021516022461B
:1008F000C02102F04BFA2146012001F0E1FD012068
:1009000001F004FE012010BD002010BD7000002089
:100910002DE9F84F0020ADF80000DFF834A14BF6C8
:10092000BF7648F280074A4D4A4C40F68F7848F629
:100930000F7BDFF824910AF1440A31E00888474A26
:1009400010F00F00107034D0454901EB8001D1F850
:10095000002CADF80020BDF8002012040BD5D1F812
:10096000002C02EA0802C1F8002C3E4901EB80008D
:1009700050F8040C8047BDF80000000610D5374839
:100980003749007801EB8001D1F8002C02EA0B0214
:10099000C1F8002C344901EB800050F8040C80476A
:1009A000DAF800004946A9F800000004C6D4BDE802
:1009B000F88F28682080208800F030006080208830
:1009C00000F4405020802868304080F4005080F0CF
:1009D0002000384328600888C006286815D400EA3B
:1009E0000B00286000F042FD26E02188890401D533
:1009F00080F400506188C90626D46188890601D533
:100A000080F0200038432860D1E7ADF80000BDF841
:100A10000000000506D5286800EA0800286001F0FB
:100A20002FFE09E0BDF800000004B9D5286800EAEF
:100A30000800286001F028F8286821883040C9049F
:100A4000D3D580F48050D0E780F01000D5E70000C7
:100A5000005C004016000020AA00002004000020D6
:100A600000500040D0000020B40000208100084861
:100A70000844D0F8001C490409D5D0F8001C48F6F9
:100A80008F7211404CF280021143C0F8001C704775
:100A900000500040810008480844D0F8001C490676
:100AA00009D5D0F8001C48F68F72114048F2C002F8
:100AB0001143C0F8001C70470050004081000648F8
:100AC0000144D1F8000C48F68F62104048F28002D1
:100AD0001043C1F8000C7047005000402DE9F0476A
:100AE000DFF89480254F4FF03009D8F8001001F15D
:100AF0001005088A0E7A08B9042E04D0AC88A042EA
:100B000015D8042614E01E480178012903D00726D1
:100B1000102038802BE01B4A002112681A4B120467
:100B200003EBD2325160A7F8009001701FE002265B
:100B3000844200D90446A96820468847824600209E
:100B400000F012FC01462246504602F01FF92146F1
:100B5000002001F0B5FC2888001B2880688820440C
:100B60006880A7F8009009494FF440500880D8F8F1
:100B700000000672BDE8F087080000201800002081
:100B800000000020505C0040006000401600002083
:100B90002DE9F047224EDFF88C803027356835F894
:100BA000100FA968A9B100B3AC88844200D90446EB
:100BB0002046884781462888001B28806888204472
:100BC0006880002000F0B0FB01462246484600F055
:100BD0007FFF288848B114494FF440500880002115
:100BE000084601F06DFCA8F800702888A9888842A2
:100BF00001D3032001E020B1052031680872BDE86F
:100C0000F087316806200872084900200968084A00
:100C1000090402EBD1314860A8F80070EFE700004A
:100C2000080000201800002016000020505C004042
:100C300000600040F8B55D4C5D4D09262068002736
:100C400029684278062A05D0AAB1082A4DD00A2A76
:100C500050D06BE00278520668D18078012804D029
:100C6000022804D0032804D060E0C96956E0096A6C
:100C700054E0496A52E04288B2BBC288022A55D188
:100C800002798ABB0278530601D1838833B102F01E
:100C90007F02012A04D0022A0CD047E045493DE0FA
:100CA0008A69407900219047F0B92068807A00284D
:100CB000F4D13BE0417901F00F0001F070020B0626
:100CC0003D4901EB8001D1F8001C03D5C1F30111AE
:100CD000090102E0C1F301310903384B1B7883425B
:100CE00024D90AB90029D9D120E0007840061DD1C5
:100CF000334913E0027802F07F02012A16D1827A8A
:100D0000A2B1428892B9027982B9C288012A0DD172
:100D10008A6940790021904740B92A4931B1206859
:100D20004782816100208847002006E0296820680A
:100D3000096940788847032813D021680A8AA2F5F8
:100D40007F43FF3B0BD002280ED06AB10878000623
:100D500026D5C888009082420AD9088218E00E720F
:100D6000F8BD20680672F8BD4FF008000872F8BDA3
:100D70000ED22868144B90F82C00824201D21F70CA
:100D800006E0B2FBF0F400FB142008B90120187053
:100D9000286890F82C008882BDE8F840FFF79EBED6
:100DA00003200872094900030880F8BD08000020EC
:100DB0000C0000205128000800500040580100207D
:100DC000E527000829280008000000201600002060
:100DD0007047000001B5034800994160416800294F
:100DE000FCD108BD900100201FB500248DF80840FB
:100DF00014208DF80900E0208DF80B008DF80A40D2
:100E000002A800F04DFC8DF8004040208DF8010054
:100E100007208DF802008DF8064008208DF8044068
:100E20008DF803008DF80540684600F087FB8020B0
:100E30008DF80C0010208DF80D008DF80E408DF807
:100E40000F4003A800F05CFB1FBD000070B5064614
:100E50002DED028B86B00024B7EE008A02236A468D
:100E60002321322000F04CFC062301AA2821322045
:100E700000F046FC9DF80120500601D5402100E01D
:100E800010219DF8000003AD430601A801D55206CC
:100E900010D500EB440310F814205B781B0202FA13
:100EA00083F292FBF1F225F81420641CE4B2032CC7
:100EB000EFD30FE000EB440210F8143052781B021D
:100EC00002FA83F292FBF1F225F81420641CE4B2DA
:100ED000032CEFD302236A462321322000F010FCBA
:100EE0009DF80100B5EE000A40060ED49DF8000002
:100EF00010F030000ED0102804D0202805D0302863
:100F000008D105E0B6EE008A04E0B0EE408A01E0C8
:100F10009FED0B8A5FF0000135F9110000EE100A19
:100F200006EB8100491CB8EEC00AC9B20329C0EE25
:100F3000080AC0ED000AEFD306B0BDEC028B70BD0D
:100F40009FCDAA3D2DE9F843804600208DF8000092
:100F500004460746064601236A4619463C2000F02F
:100F6000CFFB0123454A03213C2000F0C9FB434D40
:100F700001236A1C04213C2000F0C2FB0123AA1CAF
:100F800007213C2000F0BCFB0123EA1C08213C2087
:100F900000F0B6FB01232A1D05213C2000F0B0FB28
:100FA00001236A1D06213C2000F0AAFB9DF80000E9
:100FB00000F0E0014FF4C87080291DD006DC202924
:100FC0000BD040290ED0602925D110E0A02917D0E0
:100FD000C02919D0E0291ED11BE040F24C444FF447
:100FE000757718E040F257344FF43E7713E040F243
:100FF0009E244FF416770EE04FF4E17407460AE0A2
:10100000044640F2631706E04FF4A57440F2271738
:1010100001E0E624CD2705EB460015F816104078D0
:1010200000EB01204FF47A7110FB01F000EE100A82
:1010300008EB8600761CF8EEC00A00EE104AF6B205
:10104000022EB8EE400A80EE801A80ED001AE2D33C
:101050006879297900EB01204FF47A7110FB01F0D7
:1010600000EE100AF8EEC00A00EE107AB8EE400A60
:1010700080EE801A88ED021ABDE8F883A8010020EE
:10108000014901200860704774000020084910B52C
:1010900001200860032000F057F906490246086065
:1010A000BDE810404FF48871034800F011BD000006
:1010B00078000020A4000020D401002070B500209A
:1010C00000F042F8012829D1002001F0F5F80028AD
:1010D00024D0134C00262660124D02E02068401CEC
:1010E00020602068A842F9D3002001F0E5F800282C
:1010F000FAD1266002E02068401C20602068A842E7
:10110000F9D309480168491C01600168022900D926
:101110000660BDE87040002000F008B870BD000017
:1011200084000020FFFF07009801002000F01F024C
:1011300001219140034A20F01F001044C0F814140C
:10114000704700000000014001460A4A21F01F03D9
:1011500010B51A440020D2F8003401F01F04012118
:10116000A140D2F814240B400A4202D0002B00D038
:10117000012010BD00000140F0B50268867902F040
:101180001F040121384B01FA04F422F01F05002E40
:1011900063D0364A1544D5F80064A643C5F8006408
:1011A000056825F01F041444D4F8046405F01F05F5
:1011B00001FA05F5AE43C4F804640568047925F026
:1011C0001F061E443444266805F01F0501FA05F584
:1011D0002E432660056825F01F041444D4F80864E3
:1011E00005F01F0501FA05F5AE43C4F8086404686C
:1011F00024F01F051544D5F80C6404F01F0701FA0C
:1012000007F4A643C5F80C644479102C0BD002688F
:1012100022F01F0018442044036802F01F0291408E
:101220000B430360F0BD046824F01F031344D3F89C
:10123000085404F01F0401FA04F42543C3F80854C9
:10124000036823F01F001044D0F80C2403F01F03A0
:1012500099400A43C0F80C24F0BD0079E91808440D
:101260000168A1430160F0BD00040140000001409D
:10127000F0B50022012503240E6805FA02F31E4092
:101280009E422DD10E79012E01D0022E13D18768F6
:10129000560004FA06FC27EA0C0787604F79B7402E
:1012A00086683743876086889E43868086888B79E8
:1012B00093401E4386800768560004FA06F39F4356
:1012C00007600F79D0F800C0B74047EA0C07076005
:1012D000C7689F43C760CB79B340C6683343C360D8
:1012E000521C102AC8D3F0BD4B07DB0E9A40C90828
:1012F00010B500EB8100016A0F249C40A1430162FC
:10130000016A1143016210BD02460020128A0A429E
:1013100000D00120704701857047816170470AB194
:1013200081617047018570470549096889B201EB01
:10133000C000044901EB4000008980B27047000002
:10134000505C0040006000400549096889B201EB2B
:10135000C000044901EB40008089C0F309007047D8
:10136000505C0040006000400449096889B201EB0C
:10137000C000034931F8100080B27047505C004053
:10138000006000400A4810B50168001D0468001D97
:10139000006808180BD00822064900F095F80549A6
:1013A00020460422BDE81040103100F08DB810BD79
:1013B000ACF7FF1F8A000020FEE7C16170470029DB
:1013C000016802D041F0010101E021F0010101605A
:1013D00070470246002092690A4200D001207047FF
:1013E00010B5026822F0010202600268124B1A4036
:1013F000D1E9013442EA0422134303600A6822F06F
:1014000070620261026842F00102026000228260A2
:10141000C2600B698A691A438260826842F40042A2
:101420008260CA680368134303604268034B4969DA
:101430001A401143416010BDFFE0CF00FF7FFF075E
:10144000406AC0B2704781627047000070B544685E
:10145000049DC1F30901044E41EA0241194334409D
:1014600029432143416070BD009800FC10B5134C26
:101470002068017A022904D0042902D0062905D067
:1014800015E0FFF72BFB2068007A11E04178052971
:1014900009D10178490606D1C07800F083FF0848D9
:1014A0000068006A80470748006880688047082015
:1014B00021680872BDE8104000F01CBB0800002045
:1014C000100000200C000020F0B500230A24302575
:1014D00037261F4611E000BFB4EB107F02D905EBA1
:1014E000107C01E006EB107C01F813C001EB430C0B
:1014F00000015B1C8CF80170DBB29342ECD3F0BDB1
:1015000038B5044601236A462121322000F0F8F85C
:101510009DF8000000F00C008DF800002178627842
:10152000E3781143A2781A43114301438DF8001068
:101530006A462121322000F061F938BD1CB504460D
:1015400000208DF800008DF8040000F021F82078CC
:1015500061789DF800200843A178114308438DF875
:10156000000020796179E2780843A17911430843AA
:101570009DF804106A4608438DF8040020213220AB
:1015800000F03CF901AA2321322000F037F91CBDFC
:10159000F0B501214C058BB0204600F0EFFA012197
:1015A000880400F0DFFA0121204600F0DBFA012177
:1015B000204600F0D7FA0121204600F0D3FA344F3C
:1015C000042206213846FFF78FFE04220721384601
:1015D000FFF78AFE02258DF8045000248DF806409E
:1015E00040208DF80750032600908DF8056069466D
:1015F0003846FFF73DFE8020009069463846FFF7E9
:1016000037FE8DF804408DF806400420214F8DF8F8
:10161000074000908DF8056069463846FFF728FEC0
:101620000221042000F0A2FE8DF8284008208DF849
:10163000290001208DF82A00099509A8FFF79CFDD3
:1016400007941548154D039402900594049406944C
:1016500002A908942846FFF7C3FE01212846FFF798
:10166000AEFE8DF8044010208DF8064000908DF8F5
:1016700005608DF8074069463846FFF7F9FD2020E0
:10168000009069463846FFF7F3FD0BB0F0BD00004F
:10169000000400480010004825209000005400403D
:1016A0003EB5044600208DF800008DF804008DF84A
:1016B0000800FFF76DFF207861786A4608439DF8BF
:1016C000001008438DF80000E0789DF804100843EE
:1016D0008DF80400A0789DF8081008438DF80800E4
:1016E00000213C2000F08AF801AA01213C2000F0F2
:1016F00085F802AA02213C2000F080F83EBD0000DF
:101700002DE9F84F3A4C4FF420451E4690460F46BF
:10171000834625604FF4004ADFF8D89003E0206844
:10172000411E216053D351464846FFF752FE002820
:10173000F5D14FF40050009000230122594648464D
:10174000FFF784FE256003E02068411E21603ED340
:1017500002214846FFF73DFE0028F5D0012E01D9B1
:1017600047F0800739464F464846FFF76CFE256034
:1017700003E02068411E216029D340213846FFF74D
:1017800028FE0028F5D04FF410500090F2B24FF030
:10179000007359463846FFF759FE10E02068411E95
:1017A000216014D304213846FFF713FE0028F5D03A
:1017B0003846FFF745FE761E08F8010BB6B22560E5
:1017C000002EEFD108E02168481E206004D200F00E
:1017D00013F880B2BDE8F88F20213846FFF7F9FDF5
:1017E0000028F0D020213846FFF7E7FD0020F1E780
:1017F0004000002000540040002070472DE9F84FC1
:10180000344C4FF4204617468A46814626604FF4F2
:101810000048314D03E02068411E216049D3414614
:101820002846FFF7D6FD0028F5D14FF40050C3023B
:101830000090012249462846FFF708FE266003E093
:101840002068411E216034D302212846FFF7C1FDE4
:101850000028F5D051462846FFF7F5FD266003E045
:101860002068411E216024D380212846FFF7B1FD66
:101870000028F5D0002000904FF000730122494667
:101880002846FFF7E3FD266003E02068411E216043
:101890000FD302212846FFF79CFD0028F5D03978A8
:1018A0002846FFF7D0FD266008E02168481E20602A
:1018B00004D2FFF7A1FF80B2BDE8F88F20212846AF
:1018C000FFF787FD0028F0D020212846FFF775FD9F
:1018D0000020F1E7400000200054004010B5124CF9
:1018E000012000F0ADFA00F0C9FA1049087011208B
:1018F00000F084FA0028FAD0012000F0A9FA19209B
:1019000000F07CFA0028FAD0022000F0A7FA00BF0D
:1019100000F08EFA0828FBD1A17A054809B105210B
:1019200000E00121016010BDB8010020700000201E
:1019300080010020FEE770477047000070B50F235C
:10194000C47801780122F4B1144C2468457804F479
:10195000E064C4F5E064240AC4F10406E34084783A
:10196000B5401C402C4301F1E021230181F80034F3
:10197000007800F01F018A404009800000F1E0205B
:10198000C0F8002170BD01F01F00824048098000AE
:1019900000F1E020C0F8802170BD00000CED00E0F7
:1019A0000249084302490860704700000000FA0538
:1019B0000CED00E070B52F4D2868017844784A0698
:1019C00006D001F07F00012828D002282BD035E076
:1019D000092C06D0052C07D0032C0ED0012C14D0D6
:1019E0002CE000F07FFF28E0C1787F292ED8817895
:1019F00061BB818851BB807A27E0C17801291DD164
:101A00008088D8B900F08AFF17E0C178012915D184
:101A1000818899B9407A80060AD40FE00B2C0DD149
:101A200000F0D2FF09E0012C02D0032C03D005E026
:101A300000F05AFE01E000F083FF58B10E49204645
:101A4000096849698847032802D018B108200DE0C9
:101A500009200BE0094A062000211268084B1204F5
:101A600003EBD2325160074A302111802968087295
:101A700070BD0000080000200C000020505C0040F9
:101A8000006000401800002010B50F4C2068007A5C
:101A9000022811D004280FD0032804D0052802D032
:101AA000072805D008E0FFF773F82068007A04E003
:101AB00006480068C0688047082021680872BDE8B1
:101AC000104000F017B80000080000200C000020B3
:101AD000064B521C520803EB410105D031F8043B80
:101AE00020F8023B521EF9D1704700000060004010
:101AF000704700000C4810B590F82C10002000F042
:101B000085FC0A480068007A082802D0092809D014
:101B100006E007494FF480500880064910200880ED
:101B2000002010BD012010BD080100200800002089
:101B3000160000201800002010B5012001F026F842
:101B40000648012101600021054A0160031D19605A
:101B50004FF4E05111800160002010BD405C004056
:101B600014000020044A0029516901D0014300E01B
:101B7000814351617047000000100240044A00296F
:101B8000D16901D0014300E08143D1617047000079
:101B900000100240044A0029916901D0014300E08D
:101BA0008143916170470000001002402DE9F04F21
:101BB0008E4900224B688E4C13F00C0303D0042B8B
:101BC00001D0082B01D0046012E04A684B6802F48F
:101BD00070124FF0020513F4803F05EB924239D0AA
:101BE000CB6A03F00F035B1CB4FBF3F35A430260B0
:101BF0008A46884649680F23DFF8F89103EA1111F5
:101C000019F80170016821FA07F34360D8F804500D
:101C1000072606EA152519F8055023FA05F585600B
:101C2000D8F804C006EADC2619F80660F340C36061
:101C3000D8F82C809C464FF01F0B0BEA181309F1C3
:101C4000100E3EF813305FEAC36806D5B2FBF3F31B
:101C5000036103E0684B5A43C9E70161DAF82C805D
:101C6000D1460BEA58233EF813305FEAC36803D528
:101C7000B2FBF3F3436100E04161D9F830804B4699
:101C80005FEAC86801D4846100E08161D3F83080E4
:101C90005FEA886801D4C46100E0C161D3F8308094
:101CA0005FEAC85808D5914206D1BE4204D14FEA36
:101CB0004208C0F8208001E0C0F820C0D3F830808E
:101CC0005FEA885806D5914204D1BE4202D1520043
:101CD000426201E0C0F824C01A6B96074FF400423C
:101CE0000ED01E6B06F00306012E0CD01E6B06F004
:101CF0000306022E09D01E6BF643B60707D007E095
:101D0000C0F828C004E0816202E0826200E08462E0
:101D10001E6B16F4403F0FD01E6BC6F30146012E1A
:101D20000CD01E6BC6F30146022E09D01E6BC6F303
:101D30000146032E06D006E0C56204E0C16202E05F
:101D4000C26200E0C4621E6B16F4402F0FD01E6BFF
:101D5000C6F38146012E0CD01E6BC6F38146022EBF
:101D600009D01E6BC6F38146032E06D006E005633C
:101D700004E0016302E0026300E004631E6B16F4FA
:101D8000401F0FD01E6BC6F30156012E0CD01E6BE8
:101D9000C6F30156022E09D01E6BC6F30156032E60
:101DA00006D006E0456304E0416302E0426300E0E0
:101DB00044631E6B16F4400F11D01D6BC5F38155A3
:101DC000012D0ED0196BC1F3815102290BD0196B73
:101DD000C1F38151032900D18463BDE8F08F85638D
:101DE000FBE78163F9E78263F7E700000010024038
:101DF00000127A004400002000093D000346002044
:101E00000A4A59090CD001290CD004290CD0516A76
:101E100003F01F02012393400B4200D001207047C2
:101E20001168F5E7116AF3E75168F1E70010024025
:101E30000248406800F00C007047000000100240AB
:101E4000024900228A70887070470000001002402A
:101E5000014908667047000000004242034A516889
:101E600021F003010143516070470000001002405F
:101E70000149C1F8D80070470000424218B500205F
:101E80004FF4A06400901120FFF7B8FF0099491C9F
:101E90000091A14201D00028F5D01120FFF7AEFF3C
:101EA000002800D0012018BDF0B500242DED0C8BCA
:101EB0008DB0054617460E4606A80694079408946A
:101EC000019402940394FFF73DF801A8FEF7BEFFCA
:101ED00001A89FEDA70A00BF00EB8401641CD1EDAF
:101EE000000AE4B2032C80EE801A81ED001AF3D3CD
:101EF0009DED010ADDED020A20EE000A00EEA00AC7
:101F0000DDED030A00EEA00A10EE100AFEF7E7FA74
:101F100041EC100B01F0ACFB51EC100BFEF7F2FAA8
:101F20009DED020A08EE100AB1EE400AC0EE08AAC2
:101F30002AEEAA0A10EE100AFEF7D1FA9FED8D9B49
:101F400053EC192BFEF7E7F941EC100B01F090FB75
:101F500051EC100BFEF7D6FA9DED010A0AEE100ABD
:101F600080EE08CA2CEE0C0A10EE100AFEF7B7FA43
:101F700053EC192BFEF7CFF941EC100B01F078FB75
:101F800051EC100BFEF7BEFA09EE100A9FED7BDB59
:101F90009FED7C8B9FED7DBBF5EEC0AAF1EE10FAB4
:101FA0002EDDB5EEC0AAF1EE10FA12DD1AEE100A1F
:101FB000FEF795FA41EC100B01F086F853EC182B64
:101FC00051EC100BFEF7AAF953EC1B2BFEF718FA95
:101FD00035E01AEE100AFEF782FA41EC100B01F020
:101FE00073F853EC182B51EC100BFEF797F953ECE8
:101FF0001B2BFEF705FA41EC100B53EC182B1AE0E3
:10200000B5EEC0AAF1EE10FAE3DD1AEE100AFEF703
:1020100066FA41EC100B01F057F853EC182B51EC19
:10202000100BFEF77BF953EC1B2BFEF7E9F953EC91
:102030001D2B41EC100B51EC100BFEF7C8F8FEF70E
:1020400061FA09EE900AB5EEC0CAF1EE10FA2EDD83
:10205000B5EEC09AF1EE10FA12DD19EE100AFEF795
:102060003EFA41EC100B01F02FF853EC182B51EC19
:10207000100BFEF753F953EC1B2BFEF7C1F935E0BB
:1020800019EE100AFEF72BFA41EC100B01F01CF8C8
:1020900053EC182B51EC100BFEF740F953EC1B2BB3
:1020A000FEF7AEF941EC100B53EC182B1AE0B5EE2D
:1020B000C09AF1EE10FAE3DD19EE100AFEF70FFAFE
:1020C00041EC100B01F000F853EC182B51EC100B05
:1020D000FEF724F953EC1B2BFEF792F953EC1D2B62
:1020E00041EC100B51EC100BFEF771F8FEF70AFAF9
:1020F00008EE100A19EE901A2648DFED278A814271
:1021000001DB79EEE89A18EE101A814201DB38EE15
:10211000688A9DED060A9DED081A60EE090A20EE18
:102120002A0A41EE0C0A20EE0C0A9DED071A01EE78
:102130000A0A21EE2A1A01EE490A01F071F9DFEDCF
:10214000170A9FED171A60EE200A80EE810AB5EE9D
:10215000C00AF1EE10FA01D230EE280A85ED000A2D
:10216000C6ED009A87ED008A0DB0BDEC0C8BF0BD7A
:102170000000C842000000000000F03F0000000026
:102180000080764000000000008066400000006093
:10219000FB2109400000B4430000B4430000344375
:1021A000DB0F49402DE9F041214C072800D0207079
:1021B00022781F4D0627052104261E48062A0BD229
:1021C000DFE802F0030C11161E27686810B12170B9
:1021D000BDE8F08100F030F82770F9E700F02CF846
:1021E0002670012022E00220607003202070EFE7BB
:1021F0006078401E607060780028E9D12670E7E7BB
:10220000026892B242F01002026021700A206070EF
:10221000DEE76178491E617061780029D8D10168D4
:1022200089B221F010010160277000206860CFE7BB
:1022300088010020405C004010B5064C206880B248
:1022400020F004002060FFF749FB4FF43F4020607E
:1022500010BD0000405C00401CB504460E48012142
:1022600050F82400FFF77EFC0B480021103830F8AE
:102270001400009001208DF804008DF806108DF8F0
:10228000070003208DF805000448694650F8240033
:10229000FEF7EEFF1CBD0000D84200082000002021
:1022A0000349044A31F8101052F8200001857047A4
:1022B000C8420008200000200349044A31F81010E9
:1022C00052F82000FFF720B8C04200081C00002090
:1022D00070B5044622480E4686B050F8240001210D
:1022E000FFF740FC01210846FFF754FC1C4800257D
:1022F0008DF81050001F8DF8135030F81400039023
:10230000184803A950F82400FEF7B2FF012E25D18A
:102310001348C01F015D401E005D00F027F8104803
:10232000801E30F8140000908DF8045008208DF8BD
:10233000050001258DF806506846FEF71DFF084888
:10234000801F005D8DF808000F208DF809008DF8C2
:102350000A008DF80B5002A8FFF7F0FA06B070BD26
:10236000C44200081C0000207047000010B58A0716
:1023700021F003040649130F21440F228C689A4070
:1023800094438C608A68984002438A6010BD0000C4
:1023900000000140024920F007000860704700007B
:1023A000505C0040F0B50E490E4D48F68F770B7823
:1023B000002148F2800C0BE0CEB205EB8604D4F885
:1023C000002C3A40324342EA0C02C4F8002C491C6B
:1023D0009942F1D3044940F080000860F0BD00004C
:1023E00058010020005000404C5C0040054A21F09C
:1023F0000101126892B202EBC000034A02EB4000F6
:1024000081607047505C0040006000400D4A1268D7
:102410003E2992B202EBC0000B4A02EB400209D9FE
:102420004809C90601D1401E80B24FF4004141EA7B
:10243000802004E04808C90700D0401C80021060DA
:1024400070470000505C00400C60004082000A4869
:102450000244D2F8000C4BF68F731840CB0401D520
:1024600080F48050890401D580F4005048F2800146
:102470000843C2F8000C7047005000408100074834
:102480000144D1F8000C4BF68F72104080F440509C
:1024900048F280021043C1F8000C70470050004021
:1024A000054A21F00101126892B202EBC000034A12
:1024B00042F8101070470000505C0040006000407F
:1024C000044A126892B202EBC000034A02EB4000D9
:1024D00041607047505C00400060004082000A4844
:1024E0000244D2F8000C48F6BF731840CB0601D561
:1024F00080F01000890601D580F0200048F28001AC
:102500000843C2F8000C70470050004081000748A3
:102510000144D1F8000C48F6BF72104080F0300042
:1025200048F280021043C1F8000C70470050004090
:10253000820005480244D2F8000C48F68F13184078
:102540000843C2F8000C7047005000400CB5002151
:10255000214801910091026842F4A02202604FF4E8
:10256000A063026802F400320092019A521C0192A8
:10257000009A12B9019A9A42F3D10268920329D5BE
:102580000121164A009112211160416841604168A1
:102590004160416841F480614160416821F47C11EF
:1025A0004160416841F4E8114160016841F0807187
:1025B000016001688901FCD5416821F00301416097
:1025C000416841F0020141604168C1F38101022983
:1025D000FAD10CBD00910CBD001002400020024059
:1025E0007CB501210807FFF7C9FA01210846FFF76A
:1025F000D1FA01214805FFF7B5FA01214804FFF798
:10260000B1FA4FF4C050009003208DF8050002206D
:102610008DF8040000248DF806404FF090458DF8A9
:10262000074069462846FEF723FE0E220B21284666
:10263000FEF75AFE0E220C212846FEF755FE012118
:102640000020FFF745FE1220FEF770FD064812211C
:10265000016004710821417101218171FEF78CFD37
:102660000020FEF763FD7CBD7C00002010B500203B
:10267000FFF7FEFB0121BDE81040C805FFF77EBA59
:1026800070B516480068174D0004C10B144801448A
:10269000098989B200EB41042868017A09290FD021
:1026A0002178017061784170A088FEF713F92968DC
:1026B00048802089FEF70EF929688880A089C880A3
:1026C000286801210172C08828B1FEF7B3FABDE87D
:1026D0007040FFF70FBAFFF76DF9F8E7505C004064
:1026E00000600040080000202DE9F04138480068F3
:1026F000017811F07F0102D0022905D066E0417A0D
:1027000001F0DF0141724EE0418800295ED101797C
:10271000F1BB4179304D21F080040A0605EB8402BB
:102720002C4BD2F8002C03D5C2F30112120102E0A7
:10273000C2F3013212031E782346A64246D93AB3A9
:10274000807A28B308064FEA84000ED52844D0F8D2
:10275000000CC0F30110012821D11846FEF79AF9A8
:1027600020463021FFF7BAFE19E04619D6F8000CD2
:10277000C0F30130012812D14BF68F7748F2800860
:10278000A4B11846FEF772F9D6F8000C384000E004
:102790001CE080F4405040EA0800C6F8000C0F48E6
:1027A0000068406980470020BDE8F0810C4890F83F
:1027B0002C100020FFF72AFED5F8000C384080F4DA
:1027C000405040EA0800C5F8000CE8E70220EBE7BB
:1027D0000800002058010020005000401000002098
:1027E0000801002010B5074C30B1074800680068A8
:1027F000804720680A3010BD21680120088200202F
:1028000010BD00000800002010000020054A1368D9
:102810005A8A10B10868104470478888801A188254
:10282000002070470800002010B5074C30B1074861
:1028300000688068804720680C3010BD2168012046
:102840000882002010BD00000800002010000020B9
:10285000204910B5096860B11F48002202800A783B
:1028600053060AD002F07F02012A16D0022A16D09F
:1028700001E002200882002010BD497A8A06027811
:1028800002D542F0020201E002F0FD0249060270A8
:10289000D1B211D401F0FE0110E00F4810BD4A7909
:1028A000110713060D4A02EB9161D1F8001C07D500
:1028B000C1F3011106E0017841F00101017003E06C
:1028C000C1F301310129F6D005480068006980474D
:1028D000E3E7000008000020020000200050004054
:1028E000100000200A4810B500680A4AC1785278E2
:1028F000914203D882780AB982880AB1022010BDB9
:1029000081720548006840688047002010BD0000C3
:10291000080000205801002010000020064810B5D3
:102920000068417A41F02001417204480068C069A2
:102930008047002010BD000008000020100000208B
:1029400070B51D481D4D0368597921F0800005EBD5
:1029500080000C06D0F8004C21F0800203D5C4F3AF
:102960000114240102E0C4F301342403144D2D7832
:10297000954210D95A8872B96CB19A7A5AB109063F
:10298000D0F8001C48F2800207D548F6BF73194002
:1029900081F0100106E0022070BD4BF68F731940E4
:1029A00081F480511143C0F8001C0648006880691A
:1029B0008047002070BD000008000020005000404B
:1029C000580100201000002010B50E4C0E4A20685F
:1029D0001268C17892694079904721688A7A22B159
:1029E00018B9087908B9887808B1022010BD0748DD
:1029F0000068C068804720684179C172C17801735E
:102A0000002010BD080000200C0000201000002055
:102A1000F8B52B49002000900A682A4B2A4C92B244
:102A200003EB8005D5F8005CADB244F82050401CA3
:102A30000828F5D342F48060086040F00100086087
:102A400020F001050D601E4A121D10684005FCD5DE
:102A50004FF6FF301060002054F8206003EB800731
:102A6000B6B2C7F8006C401C0828F5D345F0080042
:102A70000860086880B240F004000860134B1868D2
:102A80000090186820F0030040F001001860104822
:102A9000046844F0040404601468E40401D430BF02
:102AA00009E04EF6FF7414600A6892B222F0080240
:102AB0000A6000991960016821F004010160F8BD05
:102AC000405C0040005000401402002000700040B4
:102AD00010ED00E010B500F045F804480168491E0B
:102AE000016003490878401C087010BDB001002047
:102AF00090010020164810B5016841F47001016092
:102B00001448016841F0010101604168124A114016
:102B100041600168114A11400160016821F480217F
:102B20000160416821F4FE014160C16A21F00F019A
:102B3000C162016B0A4A1140016300218160FFF705
:102B400005FD03494FF000608039086010BD0000AA
:102B500088ED00E0001002400CC07FF8FFFFF6FE99
:102B6000CCFC00FF03484168002902D04168491E9F
:102B7000416070479001002010B50020FFF712FB64
:102B8000BDE810401220FEF7D1BA0000044A002828
:102B90004FF48041104601D0FEF7BDBBFEF7BDBB30
:102BA0000010004806480549022201600A72064AE0
:102BB0000449C0E90112086800470000B80100207C
:102BC00008000020080100205C01002038B54FF407
:102BD000A060FEF7E5FE14208DF8000002208DF8BD
:102BE000010000258DF8025001248DF8034068464D
:102BF000FEF7A4FE2A208DF800008DF801408DF824
:102C000003406846FEF79AFE06208DF800008DF816
:102C100001506846FEF792FE38BD00002DE9F041F4
:102C20004A4E88B000243068494D68806988494F11
:102C300038880140890505D54FF6FF513160297864
:102C4000491C297069880140080401D5FDF760FE20
:102C5000688839884FF6FF380840400504D5C6F823
:102C600000803D4840688047698838880140890471
:102C700002D54DF6FF71316069880140C80405D561
:102C80004EF6FF7030600020FFF78CFA68883988B4
:102C9000084000050BD53148007810B1FFF7B8FEA9
:102CA00002E00220FFF77EFA4FF2FF703060688882
:102CB00039880840C00545D54FF6FF60306023488D
:102CC000001D00684FF00003000437D56868401C01
:102CD00068606868032832D91C48001F016809072A
:102CE0002DD4016889B2A9601D496A4601EB8407A9
:102CF000D7F8007CBFB242F82470641C082CF5D3CE
:102D0000AC6844F00104AC60AC68A4B20460AC6888
:102D100024F00104AC60AC68A4B2046030684005E3
:102D2000FCD5C6F80080002052F8204001EB800658
:102D3000A4B2C6F8004C401C0828F5D36B600720ED
:102D4000FFF730FA08B0BDE8F0810000445C0040B5
:102D5000A8000020140000200801002084010020A9
:102D600000500040FFF75ABF0549002008600549A0
:102D70004FF43F4008800249091F08600020704757
:102D8000445C004014000020FEE70000094B10B531
:102D9000521C520803EB41010AD000BF10F8013B5E
:102DA000521E10F8014B43EA042321F8043BF5D1ED
:102DB00010BD00000060004010B5FFF711FCFFF7E8
:102DC00055FCFFF703FFFFF7EDFE02490120086005
:102DD00010BD00007400002010B5044606480168CC
:102DE0000129FCD12046FDF7EBF901462046BDE85C
:102DF0001040FDF775BD0000740000207CB5012176
:102E00004804FEF7AFFE01208DF8040000208DF885
:102E1000060003218DF805104FF480548DF807004B
:102E20004FF09045009469462846FEF721FA0022AB
:102E300021462846FEF773FA7CBD0000104A10B503
:102E400000211268212802D0202807D016E010782F
:102E500000F07F00212811D10A4908E0107800F025
:102E60007F00212800D10849084B2020187029B183
:102E70000020916150828847002010BD022010BDC3
:102E800008000020A92E00081D300008EC000020DA
:102E90000149FFF7BBBC0000000100200149FFF71A
:102EA000B5BC0000F800002008B104487047044990
:102EB000082009680882002070470000F000002008
:102EC0000800002005490968C978042901D90020B3
:102ED0007047034A02EBC101FFF798BC08000020CD
:102EE0003801002009B9012801D9022070470020CB
:102EF0007047000007490968097801F07F0121291E
:102F000003D1022803D0222801D0022070470020DC
:102F10007047000008000020334810B50068334AAD
:102F200000218172D2794272C1720846FFF732FAEB
:102F30004FF400710020FFF7FBFA10210020FFF78B
:102F4000CDFA40210020FFF751FA80210020FFF741
:102F5000A7FA0020FDF7B2FD254890F82C100020BC
:102F6000FFF754FA0020FFF789FA00210120FFF74C
:102F7000DFFAC0210120FFF793FA20210120FFF79B
:102F8000ADFA00210120FFF761FA4FF4C061022081
:102F9000FFF7CEFA4FF480710220FFF781FA00218B
:102FA0000220FFF753FA20210220FFF797FA0021B1
:102FB0000320FFF7BDFA4FF488710320FFF716FADC
:102FC00040210320FFF722FA4FF440510320FFF77E
:102FD0003DFA00210320FFF781FA0020FFF7E2F914
:102FE00004490120086010BD080000200A430008C1
:102FF00008010020800100200348807A002802D0C8
:103000000249052008607047B801002080010020B7
:1030100001490420086070478001002008B104487D
:1030200070470449082009680882002070470000A2
:10303000F00000200800002003480178202901D179
:103040000021017070470000EC0000207047000074
:1030500010B5FEF797F90548002400688472FEF762
:103060006BFDFFF781FE0248046010BD08000020E0
:10307000800100200FB4084B10B504A902AA0398E0
:1030800000F09EFC044602A9002001F030F8204622
:1030900010BC5DF814FB0000EF400008410008027E
:1030A00018BF04200A0E18BF40F001004FF07F4205
:1030B00032EA010108BF40F00200012808BF0520E4
:1030C000704700000000000010B5B94A2DED020B5A
:1030D0002DED0C8B82B00F9921F000409FEDB6CB07
:1030E00090422CDBA0F140530E9AA3F17F631A4368
:1030F0000FD0B349884202DC16D10E98A0B19DEDE5
:103100000E0B02B0BDEC0C8B02B0BDE8104000F01D
:1031100068BB0029C1BF9FEDAC0B02B0BDEC0C8BAE
:1031200002B0C8BF10BD16E0012000F091FB02B054
:10313000BDEC0C8B02B0BDE8104000F05DBBA44AB2
:103140009FEDA59B9FEDA6AB90425EDAA6499FED51
:10315000A8CB814208DBB0EE4C0AF0EE6C0A02B05C
:10316000BDEC0C8B02B010BD9DED0E0B53EC102B83
:1031700051EC100BFDF7D2F841EC180B9E480621DC
:10318000B0EE480AF0EE680A784400F0AEFA53EC6C
:10319000182B51EC100BFDF7C1F841EC1B0B9748B5
:1031A000B0EE480AF0EE680A0421784400F09DFA77
:1031B00053EC182B51EC100BFDF7B0F853EC192B16
:1031C000FDF705F841EC100B51EC1B0B53EC102BE9
:1031D000FDF716F941EC100B53EC102B9DED0E0B87
:1031E00051EC100BFDF79AF853EC1A2BFDF793F8FE
:1031F0009DED0E1B53EC112BFDF78DF853EC1C2BA2
:10320000FDF789F841EC100BA9E79FED7D8B9FED51
:103210007EBB9DED0E0B002953EC192B51EC100BCE
:1032200052DAFCF7D4FF53EC182BFDF777F841EC9A
:10323000180B77480621B0EE480AF0EE680A784489
:1032400000F053FA53EC182B51EC100BFDF766F815
:1032500041EC1D0B6F48B0EE480AF0EE680A0421FD
:10326000784400F042FA53EC182B51EC100BFDF7A8
:1032700055F853EC192BFCF7AAFF41EC190B51EC54
:10328000180B00F0E3FF41EC180B53EC192B51EC39
:103290001D0BFDF7B5F853EC182BFDF73FF853EC79
:1032A0001A2BFDF735F841EC100B51EC180B53ECD1
:1032B000102BFCF78CFF53EC1B2BFDF72FF853EC76
:1032C0001C2BFDF728F86DE0FDF725F853EC182BC3
:1032D000FDF724F841EC180B00F0B8FF41EC1A0B95
:1032E00000208DED00AB00909DED000B51EC1A0B12
:1032F00053EC102BFCF76BFF9DED000B41EC1C0B0E
:1033000053EC102B51EC100BFDF708F853EC182B75
:10331000FDF701F853EC1C2BFDF772F841EC1C0B88
:103320003D48B0EE480AF0EE680A0621784400F005
:10333000DCF953EC182B51EC100BFCF7EFFF41ECD0
:103340001D0B3648B0EE480AF0EE680A04217844B6
:1033500000F0CBF953EC182B51EC100BFCF7DEFF0F
:1033600053EC192BFCF733FF41EC100B51EC1D0B08
:1033700053EC102BFDF744F853EC1A2BFCF7CEFF5F
:1033800053EC1C2BFCF723FF41EC100B53EC102BE0
:103390009DED000B51EC100BFCF719FF53EC1B2BB0
:1033A000FCF7BCFF41EC100BD9E600000000000068
:1033B0000000F03F00000000182D4454FB2109409C
:1033C0000000F07F0000000000000000000000008E
:1033D0000000E03F00000000000000000000F03F9F
:1033E000075C143326A6913C0000603C00000000FE
:1033F000182D4454FB21F93F241200003212000022
:10340000000000000000E03F00000000000000405D
:103410006E1100007C110000801000008E10000072
:1034200010EE100A10B510EE901A4FF0684202EB41
:1034300040032DED028BB3F1654F3CBF02EB41021F
:10344000B2F1654F7CD200BFC0F3C753C1F3C7527E
:103450009A1A1B2A09DD10F0004F14BF9FED6E0A67
:103460009FED6E0ABDEC028B10BD12F11A0F1BDA34
:1034700011F0004F09D010F0004F0CBF9FED680A0B
:103480009FED680ABDEC028B10BD80EE208A18EE1D
:10349000100AFFF703FE042808BF00F0C1F9B0EEE0
:1034A000480ABDEC028B10BD4200B2EB410F37D988
:1034B00010F0004F19BFDFED5C1A9FED5C1ADFEDD5
:1034C0005C1A9FED5C1AB0EE602A0A46F1EE400AE3
:1034D00080F00041B0EE420A10460A1A5200B2F1E2
:1034E000807F34D2484010F0004FDFED532A9FED2B
:1034F000533A1DBFBEEE002A71EEE21A31EE431AB6
:10350000B6EE002A04BF71EEA21A31EE031AF0EEF5
:10351000402A42EE602A40EE020A82EEA02A18E01B
:1035200011F0004F04BF9FED461AF0EE411AD4D0BF
:1035300010F0004F1CBFDFED431A9FED431A00E06F
:1035400026E004BFDFED411A9FED411AC5E780EE8A
:10355000202A22EE020ADFED3F0ADFED3F2ABDEC12
:10356000028B40EE202ADFED3D0A40EE220ADFED1D
:103570003C2A40EE202ADFED3B0A40EE220A22EEF2
:10358000000A00EE201A31EE020A30EE210A10BDC8
:103590004FF07F42B2EB400F28BFB2EB410F05D294
:1035A000BDEC028BBDE8104000F036B940EA0103E3
:1035B0005B0008BF41F0FF410BD0B2EB400F08BFEA
:1035C000B2EB410F08D120F0804000EE100A21F04C
:1035D000804100EE901A37E7B2EB400F12BF5FEA6E
:1035E000410240F0FF4001F000413FF42DAF4A009E
:1035F00092EA40033FF528AF002AACBF9FED1A1AAC
:103600009FED1A1A20EE010A60EE810A10EE100AF0
:1036100010EE901A18E70000DB0FC9BFDB0FC93F9F
:10362000DB0F4940DB0F49C00000C9BF22AAFDB92A
:103630000000C93F22AAFD390060ED3EC30ACE3723
:1036400000000000000049C022AA7DBA00004940E5
:1036500022AA7D3A2DAD65BD8FB8D53D0FB511BEFF
:1036600061C84C3EA8AAAABE0000804F0000802F6F
:1036700000B52DED048BB0EE409AF0EE609A83B069
:1036800051EC190BFDF756F841EC180B18EE100A27
:1036900018EE901A8DED008B002818BF012008430A
:1036A00020F00040C0F17F6000F1E040C00F14D076
:1036B00019EE101A19EE900A8DED009B002918BF23
:1036C0000121084320F00040C0F17F6000F1E0409C
:1036D000C00F04BF012000F0BBF8B0EE480A03B0F1
:1036E000F0EE680ABDEC048B00BD70B504462DED0C
:1036F000028B4D1E00EBC500B0EE408AF0EE608AF2
:1037000090ED000B35F0060017D053EC182B51EC60
:10371000100BFCF703FE41EC100B6D1E04EBC50013
:1037200090ED001B51EC100B53EC112BFCF74FFDEF
:1037300041EC100B35F00600E7D1022D36D0042DF8
:103740001CD0062D1CBFBDEC028B70BD53EC182B9A
:1037500051EC100BFCF7E2FD94ED0A1B53EC112B1E
:10376000FCF735FD53EC182BFCF7D8FD94ED081B46
:1037700053EC112BFCF72BFD41EC100B53EC182BE9
:1037800051EC100BFCF7CAFD94ED061B53EC112B0A
:10379000FCF71DFD53EC182BFCF7C0FD94ED040B5A
:1037A00053EC102BFCF713FD41EC100B53EC182BD2
:1037B00051EC100BFCF7B2FD94ED021B53EC112BF6
:1037C000FCF705FD53EC182BFCF7A8FD94ED001B4E
:1037D00053EC112BFCF7FBFCBDEC028B41EC100B06
:1037E00070BD10B553EC102B51EC100BFCF7EFFC37
:1037F00041EC100B10BD00009FED050B10B553EC14
:10380000102B51EC100BFCF7FBFD41EC100B10BD25
:10381000000000000000000030EE200A70470000A9
:103820009FED020A20EE000A704700000000001021
:1038300002E008C8121F08C1002AFAD17047704779
:10384000002001E001C1121F002AFBD170470000D7
:103850000149086070470000B40100202DE9FF5FB6
:10386000DDE90220010DDDF838B0024318D044F63E
:103870001050A1F2FF3141430D140F98012820D0C0
:10388000A5EB0B00401C5FEA000A4FF00004474E16
:10389000DFF81C91A046504616D5CAF1000728E073
:1038A0000F98012443A2012808D0002100980F9B03
:1038B000C0E90021C0E90243BDE8FF9F6FEA0B01A8
:1038C000F4E7CBF10000DEE7074612E0F80707D087
:1038D0002246334640464946FCF720FD804689464D
:1038E0002246334610461946FCF718FD04460E469C
:1038F0007F10002FEAD1DDE90201BAF1000F424644
:103900004B4602DAFCF70AFD01E0FCF779FD0446BC
:103910000E460022284BFCF777FF03D84FF0FF300C
:10392000014607E00022254B20463146FCF74FFCBC
:10393000FCF751FF102409E0002C0ADB0A220023C7
:10394000FCF712FE019B30321A55641E50EA010248
:10395000F2D1641C019AC4F1110314440F9A012A94
:1039600003D0012208430DD10AE0084304D000200F
:103970004FF0110B0F9080E7A3EB0B056D1E0DE0D0
:103980005B4504DD4FF0000205F1010504E003DAB8
:103990004FF00002A5F10105002AECD000980F9924
:1039A000C0E90231C0E9004586E70000000024407C
:1039B0000000F03F300000000000F0430000E03F56
:1039C0002DE9FF4F95B09B468946064600250FE23C
:1039D000252877D100242746F84A0121059400E0E4
:1039E000044316F8013F203B01FA03F01042F7D1DF
:1039F00030782A2811D06FF02F033078A0F13002F0
:103A0000092A16D8059A44F0020402EB820203EB5D
:103A100042021044761C0590EFE759F8042B0592FA
:103A2000002A03DA504244F40054059044F00204A2
:103A3000761C30782E2816D116F8010F44F00404B5
:103A40002A280DD06FF02F023078A0F13003092B17
:103A500009D807EB870302EB4303C718761CF3E78B
:103A600059F8047B761C30786C280FD006DC4C2883
:103A700017D068280DD06A2814D104E0742810D01B
:103A80007A280FD10DE044F400140AE044F48014C5
:103A900001E044F440147278824202D104F58014AB
:103AA000761C761C307866280BD013DC582877D02B
:103AB00009DC002875D04528F6D04628F4D04728E0
:103AC0001AD19DE118E0632835D0642879D06528A3
:103AD00012D195E1702873D008DC6728F1D06928ED
:103AE0006FD06E280DD06F2806D1B5E073282CD08A
:103AF000752875D0782874D05A46179990476D1C50
:103B000075E1C4F30250022809D003280DD0D9F87A
:103B1000001004280DD00D6009F1040967E1D9F8FF
:103B20000010EA17C1E90052F6E7D9F800100D803D
:103B3000F2E70D70F0E719F8041B8DF80010002073
:103B40008DF80100EA46012003E059F804AB4FF07C
:103B5000FF3061074FF0000102D40DE008F10101D0
:103B60008846B9420FDA8045F8DB1AF808100029B8
:103B7000F4D108E008F1010188468142FADB1AF825
:103B800008100029F6D105985B46A0EB08072146EE
:103B90003846179A00F094FA284400EB080507E02D
:103BA0004DE029E10DE01AF8010B5A4617999047AC
:103BB000B8F10108F7D25B4621463846179A13E15F
:103BC00042E00A220092C4F302524FF0000A022A95
:103BD00008D059F804CB032A4FEAEC710AD00DE063
:103BE00029E02AE009F1070121F00702F2E802C109
:103BF000914609E00FFA8CFC4FEAEC71042A03D1DC
:103C00004FFA8CFC4FEAEC71002907DA0A460021D2
:103C1000DCF1000C61EB02012D2202E0220504D54B
:103C20002B228DF80420012203E0E20701D020229C
:103C3000F7E7904659E00A2102E010220DE010213A
:103C40004FF0000A00910BE010224FF0000A44F000
:103C500004040827009203E008224FF0000A0092B3
:103C6000C4F30252022A05D059F804CB0021032ADA
:103C700008D009E009F1070121F00702F2E802C1CA
:103C8000914605E01FFA8CFC042A01D10CF0FF0CD0
:103C90004FF00008220728D5702806D0009B83F03B
:103CA000100353EA0A0305D00EE040228DF80420E9
:103CB000012208E05CEA010206D030228DF80420DF
:103CC0008DF8050002229046009B83F0080353EA1A
:103CD0000A030AD15CEA010201D1620705D530224C
:103CE0008DF804204FF001087F1E582804D034A01E
:103CF00003900EA802900DE036A0F9E75346604607
:103D0000009AFCF731FC84460398825C0298401EBE
:103D1000029002705CEA0100F0D1029806A9081A2C
:103D200000F1200A600702D524F4803400E0012766
:103D3000574502DDA7EB0A0000E0002000EB0A0176
:103D4000009005984144401A0590E00306D45B4674
:103D50002146179A059800F0B3F90544002706E0BC
:103D600001A85A46C05D179990476D1C7F1C4745B6
:103D7000F6DBE0030CD55B462146179A059800F068
:103D80009FF9054404E030205A46179990476D1C6E
:103D90000099481E00900029F5DC08E0029802997D
:103DA0005A460078491C0291179990476D1CBAF148
:103DB0000001AAF1010AF1DC65E100000928010017
:103DC0003031323334353637383961626364656691
:103DD0000000000030313233343536373839414253
:103DE000434445460000000000F058F90544761CA5
:103DF000307800287FF4ECAD19B02846BDE8F08F8C
:103E0000620700D4062709F1070222F0070CFCE83C
:103E10000223E14603F000485FEA080C02D00FF2EB
:103E2000702C0DE05FEA045C02D50FF2682C07E00D
:103E30005FEAC47C02D00FF2602C01E0AFF2700C9C
:103E40004FF0FF3823F00043CDF850C065280CD068
:103E500006DC452809D046281DD047283DD13DE045
:103E6000662818D067287ED138E00021112F01DBA9
:103E7000112000E0781CCDE9000106A90EA8FFF78B
:103E8000EDFCDDE90F010E9A03910021009207F18C
:103E9000010A04914DE04FF000400097CDE9011078
:103EA00006A90EA8FFF7DAFCDDE90F0203920E9BCC
:103EB00011990022DDF80CA00093049211B9791C2D
:103EC00000EB010AB7EB0A0004D4C0F1FF3007F1A0
:103ED000010A0490AAEB0700019044E0012F00DAE8
:103EE00001270021112F01DD112000E03846CDE926
:103EF000000106A90EA8FFF7B1FCDDE90F010E9A3B
:103F00000391002104910092BA4621070CD4039931
:103F1000514500DA8A46BAF1010F05DD009AAAF18F
:103F20000101515C302908D0B84202DA10F1040FC7
:103F300006DA0121CDE9011015E0AAF10101E9E756
:103F4000002805DC049901440491AAEB000102E079
:103F5000411C514500DD8A460499401A401C0190DD
:103F60004FF000400290200704D40198504501DB37
:103F7000CDF8048000208DF84F0002980DF14F0716
:103F8000B0F1004F25D02B200E9002984FF0020880
:103F900000280CDA404202902D200E9007E00A2102
:103FA0000298FCF7CBFA3031029007F8011DB8F106
:103FB0000001A8F10108F2DC02980028EFD1791E77
:103FC0000E980870307800F0200040F0450007F8A7
:103FD000020D12A8C01B00F107081498007800B168
:103FE000012000EB0A01019801EBE07105984144C2
:103FF000401A401E0590E00306D45B462146179AFE
:10400000059800F05DF805441498007818B15A46F8
:10401000179990476D1CE00324D55B462146179AFB
:10402000059800F04DF805441CE00498002807DBD3
:10403000DDE90301884203DD0098405C179901E047
:10404000179930205A469047049805F10105401C05
:1040500004900198401E019004D12E205A461799D1
:1040600090476D1CBAF10001AAF1010ADDDC05E000
:1040700017F8010B5A46179990476D1CB8F10001CB
:10408000A8F10108F4DC5B462146179A0598ABE6D7
:104090002D0000002B000000200000002DE9F04161
:1040A000044600251E461746880404D405E0394618
:1040B0002020B0476D1C641EF9D52846BDE8F0816C
:1040C0002DE9F041044600251E469046C80301D55F
:1040D000302700E02027880404D505E04146384613
:1040E000B0476D1C641EF9D52846BDE8F0810A680A
:1040F000531C0B60107070478EB04848FDF756FD9A
:1041000046484FF47A714068B0FBF1F0B0F1807F1F
:104110007ED220F07F414FF0E020491E4161404AAD
:10412000F02182F8141D4FF00009C0F81890072103
:104130000161FEF763FE4FF4FA70FCF74BFEFEF7E9
:104140003BFE01210020FEF7C3F8364CA068012891
:10415000FCD10020FEF780F80120FEF77DF8022058
:10416000FEF77AF80320FEF777F80420FEF774F8DC
:104170000520FEF771F80620FEF76EF80720FEF71F
:104180006BF8FCF731FEA046404698F80010052970
:10419000FAD180F800900020FEF782F80320FEF7A5
:1041A0007FF80420FEF77CF80120FEF779F807205D
:1041B000FEF776F80520FEF773F80620FEF770F894
:1041C0000220FEF76DF8174A1432111F081FFDF781
:1041D0006BFED8F80C00FCF782F906460F46D8F8BB
:1041E0001000FCF77CF904460D46D8F81400FCF7E3
:1041F00076F941EC100B8DE8F00053EC102B0AA17E
:1042000004A8FEF737FF04A8FEF7E6FDFA2000E059
:1042100002E0FCF7DFFDB7E7FEE700003402002014
:104220000FE000E090010020583A202531312E3374
:1042300066202020593A202531312E336620202057
:104240005A3A202531312E33660A000000B52DED93
:10425000048B83B041EC190BFCF76CFA41EC180BA2
:1042600018EE100A18EE901A8DED008B002818BF7A
:104270000120084320F00040C0F17F6000F1E040E1
:10428000C00F14D019EE101A19EE900A8DED009B94
:10429000002918BF0121084320F00040C0F17F60D1
:1042A00000F1E040C00F04BF0120FFF7D1FA51EC4C
:1042B000180B03B0BDEC048B00BD0000000006002D
:1042C0000100000000000200000200010004008064
:1042D0000008004000100020000020000000200026
:1042E000000020000000200000002000000020004E
:1042F0000000200000002000120100020200004027
:104300008304405700020102030109024300020135
:1043100000C032090400000102020100052400105F
:1043200001052401000104240202052406000107FE
:104330000582030800FF09040100020A00000007CB
:104340000503024000000705810240000004030944
:10435000042603530054004D006900630072006F8F
:104360000065006C0065006300740072006F006EF1
:10437000006900630073003203530054004D0033A2
:104380000032002000560069007200740075006160
:10439000006C00200043004F004D00200050006FD3
:1043A00000720074002000200000000000000000E7
:1043B000555555555555C53F7D6FEB0312D6D4BFA6
:1043C0005544880E55C1C93F3B8F68B52882A4BFAC
:1043D00088B20175E0EF493F09F7FD0DE13D023F6D
:1043E0004B2D8A1C273A03C0C88A599CE52A0040F5
:1043F00059018D1B6C06E6BF82922EB1C5B8B33F42
:104400002044000800000020B80100007C080008DB
:10441000C8440008B8010020B80400004038000873
:10442000011F12480A1D100462A02D01020304049A
:104430001D060708090E11120212041206120812B4
:104440000A1A0C27122012402A80170119141A0385
:10445000531254124D12330221321381100C1C08D6
:104460003919040A118D24512AC285120813F84201
:10447000330812130A433308431351301C08192F11
:104480002819081A4D04133D2E1B08F5041AE504DB
:104490001A9D041A91041AC5044132401A4D382A53
:1044A0000438190832261A770829BA228833201AC4
:1044B0001A046729742AF9540915A41A11684129A4
:0844C000920128726400000063
:040000050800018965
:00000001FF
