:020000040800F2
:10000000A00600209D010008271A00082111000801
:10001000251A0008D3080008E1300008000000009D
:10002000000000000000000000000000C1260008E1
:10003000D10D000800000000E11B00082D2E000873
:10004000B7010008B7010008B7010008B7010008B0
:10005000B7010008B7010008250E0008B701000825
:10006000B7010008B7010008B7010008B701000890
:10007000B7010008B7010008B7010008B701000880
:10008000B7010008B7010008B7010008B701000870
:10009000BD300008B7010008B7010008B70100082B
:1000A000B7010008B7010008B7010008B701000850
:1000B000B7010008B7010008B7010008B701000840
:1000C000B7010008B7010008B7010008B701000830
:1000D000B7010008B7010008B7010008B701000820
:1000E000B7010008B7010008D12E0008B7010008C9
:1000F000B7010008B7010008B7010008B701000800
:10010000000000000000000000000000B70100082F
:10011000B7010008B7010008B7010008B7010008DF
:10012000B7010008B7010008B7010008B7010008CF
:10013000B7010008B701000800000000000000003F
:10014000B7010008B7010008B7010008000000006F
:10015000000000000000000000000000000000009F
:100160000000000000000000B7010008B70100080F
:10017000B7010008000000000000000000000000BF
:1001800000000000B7010008DFF80CD000F054FBBD
:100190000048004721440008A00600200648804788
:1001A00006480047FEE7FEE7FEE7FEE7FEE7FEE75C
:1001B000FEE7FEE7FEE7FEE74D2E00088901000896
:1001C000421C10F8011B0029FBD1801A70472DE951
:1001D000FE4F804681EA0300C00F0C46009021F0DC
:1001E000004123F00045B8EB0200A94105D240468A
:1001F000214690461C460B46024623F00040104321
:1002000047D0270DC7F30A00C3F30A510290401AE2
:10021000019040286BDAC3F3130040F4801B009870
:10022000924620B10023D2EB030A63EB0B0B01983B
:100230005946C0F14002504600F058F906460D46B6
:1002400050465946019A00F060F910EB08006141F0
:10025000002487EA115284EAE7731A4340D0009AD7
:1002600062B3019A012A4FEA075215DC001B61EBC9
:1002700002014FF0004202EA0752CDE90042001CA1
:1002800041F5801132462B4600F097F903B0BDE8E6
:10029000F08F40462146F9E7001B61EB0201001C8C
:1002A00041F5801300185B412018A2F5001747EBB9
:1002B000030140EAD570B6196D4111E06D084FEAAF
:1002C000360645EAC0754FEA0752001B61EB020192
:1002D000001C41F5801149084FEA300000195141D6
:1002E00032462B4603B0BDE8F04F00F057B90098F6
:1002F000012240000023D0EB020263EBE073009880
:1003000021464FEAE074B8EB000061EB0401E9E735
:1003100083F000435BE781F0004158E72DE9FE4F91
:1003200081EA030404F0004421F0004100944FF0FE
:10033000000B23F0004350EA01045ED052EA0304AC
:100340005BD0C3F30A54C1F30A552C44A4F2F3342E
:100350000194A0FB0254C1F3130141F48011C3F3D3
:10036000130343F4801301FB024400FB034E840A91
:10037000970A44EA815447EA8357A4FB0768029529
:100380008D0A05FB07854FEA932C04FB0C542705C7
:10039000029D4FEA065847EA1637B5EB08056EEBA3
:1003A000070C870E920E47EA811742EA8312A7FBD9
:1003B0000201B6EB0B0164EB00042B0D43EA0C3396
:1003C0005E1844EB1C50DA465146E7FB0201C5F3C8
:1003D00013044FEA0B3343EA14534FEA0432019CEF
:1003E00043EA0603A4F10C040294009CCDE900B496
:1003F00000F0E3F803B0BDE8F08F00200146F9E714
:1004000000F0004230F000400AD0C10D01F56071EB
:10041000C0F3160042EA0151C20840071143704779
:1004200000200146704701F0004330B421F0004144
:1004300050EA010206D00A0DA2F56072C1F3130161
:10044000002A02DC30BC00207047440F44EAC1049B
:10045000C100E01830BC00EBC25000F068B830B505
:100460000B46014600202022012409E021FA02F572
:100470009D4205D303FA02F5491B04FA02F528440C
:10048000151EA2F10102F1DC30BD2DE9F05F054639
:10049000002092469B4688460646814640241BE043
:1004A000284641464746224600F0D8F953465A4668
:1004B000C01A914110D311461846224600F016F892
:1004C0002D1A67EB01084F4622460120002100F05B
:1004D0000DF817EB00094E41201EA4F10104DFDCEA
:1004E000484631462A464346BDE8F09F202A04DBB1
:1004F000203A00FA02F1002070479140C2F1200337
:1005000020FA03F3194390407047202A06DBCB17EB
:10051000203A41FA02F043EAE07306E041FA02F3BE
:10052000D040C2F12002914008431946704700298B
:10053000A8BF7047401C490008BF20F00100704769
:1005400010B4B0FA80FC00FA0CF050EA010404BFC9
:1005500010BC704749B1CCF1200421FA04F411FA1F
:100560000CF118BF012121430843A3EB0C01CB1D63
:100570004FEA00614FEA102042BF002010BC7047D4
:1005800000EBC35010440029A4BF10BC7047401CAE
:10059000490008BF20F0010010BC704710B5141EC0
:1005A00073F1000408DA401C41F1000192185B412C
:1005B0001A4301D120F0010010BD2DE9F04D924603
:1005C0009B4611B1B1FA81F202E0B0FA80F220321A
:1005D0009046FFF78BFF04460F4640EA0A0041EAC7
:1005E0000B0153465A46084313D0114653EA010003
:1005F00019D0C8F14002504600F030F905460E46C9
:10060000504659464246FFF771FF084305D0012086
:1006100004E020463946BDE8F08D0020054346EA57
:10062000E0762C4337430A986305E40AA0EB080000
:100630000022FD0A44EA47540A3002D50020014650
:10064000E9E7010510196941DDE90845001969412B
:10065000BDE8F04DA2E72DE9F04D81EA030404F076
:10066000004B21F0004514464FF0000A23F00041F2
:1006700050EA050220D054EA01021DD0C5F30A5702
:100680000246C5F31303C1F31300C1F30A5640F445
:10069000801543F48013A7EB0608101BD64608F21A
:1006A000FD3873EB050002D308F1010801E0921850
:1006B0005B41B8F1000F03DA00200146BDE8F08D80
:1006C00000204FF48011064684460EE0171B73EBA2
:1006D000050705D3121B63EB050306434CEA010C27
:1006E00049084FEA300092185B4150EA0107EDD10A
:1006F00052EA030012D082EA040083EA05010843AB
:1007000005D0101BAB4106D20122002306E00022D7
:100710004FF0004302E06FF0010253101AEB0600A5
:100720004CEB085110EB0A0041EB0B01BDE8F04D1A
:10073000FFF734BF2DE9F04D00231A461B1A8A41FA
:1007400003DB00200146BDE8F08DC1F30A52C1F37E
:10075000130141F480154FF0000BD10702D10018AE
:100760006D41521E0027044640F2FF11384601EB4E
:10077000620A3E468046024600204FF4801100F097
:100780006DF8C2197141BB1846EB0100B4EB030CC4
:1007900075EB000C04D3E41A65EB000517460E4612
:1007A000241908F101006D4180463428E3DDF91970
:1007B00046EB0600091BA84103D24FF0FF32134657
:1007C00001E0002213461BEB070046EB0A51BDE88F
:1007D000F04DFFF7E3BEC1F30A52C1F3130140F23B
:1007E000FF3341F480119A4202DA0020014670473B
:1007F00040F233439A42A2F2334202DC524200F00A
:100800002DB8FFF773BE000030B5041E71F100046F
:1008100004DB4FF00044404264EB0101141E73F10D
:10082000000405DB1C464FF00043524263EB040317
:10083000994208BF904230BD064C074D06E0E06883
:1008400040F0010394E8070098471034AC42F6D317
:10085000FFF79EFC84460008A4460008202A04DB1B
:10086000203A21FA02F00021704721FA02F3D04029
:10087000C2F12002914008431946704770B58C18A8
:1008800010F8015B15F0070301D110F8013B2A11A4
:1008900006D110F8012B03E010F8016B01F8016B91
:1008A0005B1EF9D12B0705D40023521E0DD401F88D
:1008B000013BFAE710F8013BCB1A921C03E013F856
:1008C000015B01F8015B521EF9D5A142D8D300208B
:1008D00070BDFEE7C1B2000A40EA01207047000087
:1008E00010B50C4640290FD2084A0021516022461B
:1008F000C02102F0F7FB2146012001F08DFF01200D
:1009000001F0B0FF012010BD002010BD74000020D8
:100910002DE9F84F0020ADF80000DFF834A14BF6C8
:10092000BF7648F280074A4D4A4C40F68F7848F629
:100930000F7BDFF824910AF1440A31E00888474A26
:1009400010F00F00107034D0454901EB8001D1F850
:10095000002CADF80020BDF8002012040BD5D1F812
:10096000002C02EA0802C1F8002C3E4901EB80008D
:1009700050F8040C8047BDF80000000610D5374839
:100980003749007801EB8001D1F8002C02EA0B0214
:10099000C1F8002C344901EB800050F8040C80476A
:1009A000DAF800004946A9F800000004C6D4BDE802
:1009B000F88F28682080208800F030006080208830
:1009C00000F4405020802868304080F4005080F0CF
:1009D0002000384328600888C006286815D400EA3B
:1009E0000B00286000F0F6FB26E02188890401D581
:1009F00080F400506188C90626D46188890601D533
:100A000080F0200038432860D1E7ADF80000BDF841
:100A10000000000506D5286800EA0800286001F0FB
:100A2000DBFF09E0BDF800000004B9D5286800EA42
:100A30000800286001F0A0F8286821883040C90427
:100A4000D3D580F48050D0E780F01000D5E70000C7
:100A5000005C004016000020AE00002004000020D2
:100A600000500040D4000020B80000208100084859
:100A70000844D0F8001C490409D5D0F8001C48F6F9
:100A80008F7211404CF280021143C0F8001C704775
:100A900000500040810008480844D0F8001C490676
:100AA00009D5D0F8001C48F68F72114048F2C002F8
:100AB0001143C0F8001C70470050004081000648F8
:100AC0000144D1F8000C48F68F62104048F28002D1
:100AD0001043C1F8000C7047005000402DE9F0476A
:100AE000DFF89480254F4FF03009D8F8001001F15D
:100AF0001005088A0E7A08B9042E04D0AC88A042EA
:100B000015D8042614E01E480178012903D00726D1
:100B1000102038802BE01B4A002112681A4B120467
:100B200003EBD2325160A7F8009001701FE002265B
:100B3000844200D90446A96820468847824600209E
:100B400000F0C6FA01462246504602F0CBFA214692
:100B5000002001F061FE2888001B2880688820445E
:100B60006880A7F8009009494FF440500880D8F8F1
:100B700000000672BDE8F087080000201800002081
:100B800000000020505C0040006000401600002083
:100B90002DE9F047224EDFF88C803027356835F894
:100BA000100FA968A9B100B3AC88844200D90446EB
:100BB0002046884781462888001B28806888204472
:100BC0006880002000F064FA01462246484600F0A2
:100BD000F7FF288848B114494FF44050088000219D
:100BE000084601F019FEA8F800702888A9888842F4
:100BF00001D3032001E020B1052031680872BDE86F
:100C0000F087316806200872084900200968084A00
:100C1000090402EBD1314860A8F80070EFE700004A
:100C2000080000201800002016000020505C004042
:100C300000600040F8B55D4C5D4D09262068002736
:100C400029684278062A05D0AAB1082A4DD00A2A76
:100C500050D06BE00278520668D18078012804D029
:100C6000022804D0032804D060E0C96956E0096A6C
:100C700054E0496A52E04288B2BBC288022A55D188
:100C800002798ABB0278530601D1838833B102F01E
:100C90007F02012A04D0022A0CD047E045493DE0FA
:100CA0008A69407900219047F0B92068807A00284D
:100CB000F4D13BE0417901F00F0001F070020B0626
:100CC0003D4901EB8001D1F8001C03D5C1F30111AE
:100CD000090102E0C1F301310903384B1B7883425B
:100CE00024D90AB90029D9D120E0007840061DD1C5
:100CF000334913E0027802F07F02012A16D1827A8A
:100D0000A2B1428892B9027982B9C288012A0DD172
:100D10008A6940790021904740B92A4931B1206859
:100D20004782816100208847002006E0296820680A
:100D3000096940788847032813D021680A8AA2F5F8
:100D40007F43FF3B0BD002280ED06AB10878000623
:100D500026D5C888009082420AD9088218E00E720F
:100D6000F8BD20680672F8BD4FF008000872F8BDA3
:100D70000ED22868144B90F82C00824201D21F70CA
:100D800006E0B2FBF0F400FB142008B90120187053
:100D9000286890F82C008882BDE8F840FFF79EBED6
:100DA00003200872094900030880F8BD08000020EC
:100DB0000C000020A92B0008005000405C0100201E
:100DC0003D2B0008812B00080000002016000020A9
:100DD0007047000001B5034800994160416800294F
:100DE000FCD108BD94010020014901200860704732
:100DF00078000020084910B501200860032000F0A9
:100E000057F9064902460860BDE810404FF4887162
:100E1000034800F0D5BE00007C000020A8000020A0
:100E2000E801002070B5002000F042F8012829D127
:100E3000002001F0EDFB002824D0134C0026266092
:100E4000124D02E02068401C20602068A842F9D3BF
:100E5000002001F0DDFB0028FAD1266002E02068C6
:100E6000401C20602068A842F9D309480168491C49
:100E700001600168022900D90660BDE870400020C9
:100E800000F008B870BD000088000020FFFF0700D8
:100E90009C01002000F01F0201219140034A20F034
:100EA0001F001044C0F814147047000000000140F7
:100EB00001460A4A21F01F0310B51A440020D2F857
:100EC000003401F01F040121A140D2F814240B408A
:100ED0000A4202D0002B00D0012010BD00000140CA
:100EE000F0B50268867902F01F040121384B01FA3F
:100EF00004F422F01F05002E63D0364A1544D5F8BD
:100F00000064A643C5F80064056825F01F04144476
:100F1000D4F8046405F01F0501FA05F5AE43C4F8E2
:100F200004640568047925F01F061E4434442668CD
:100F300005F01F0501FA05F52E432660056825F02A
:100F40001F041444D4F8086405F01F0501FA05F5E0
:100F5000AE43C4F80864046824F01F051544D5F8AE
:100F60000C6404F01F0701FA07F4A643C5F80C64EB
:100F70004479102C0BD0026822F01F001844204442
:100F8000036802F01F0291400B430360F0BD046848
:100F900024F01F031344D3F8085404F01F0401FA8B
:100FA00004F42543C3F80854036823F01F001044D9
:100FB000D0F80C2403F01F0399400A43C0F80C2416
:100FC000F0BD0079E91808440168A1430160F0BD53
:100FD0000004014000000140F0B500220125032477
:100FE0000E6805FA02F31E409E422DD10E79012EA5
:100FF00001D0022E13D18768560004FA06FC27EAB6
:101000000C0787604F79B7408668374387608688CA
:101010009E43868086888B7993401E43868007682E
:10102000560004FA06F39F4307600F79D0F800C01A
:10103000B74047EA0C070760C7689F43C760CB7992
:10104000B340C6683343C360521C102AC8D3F0BDF6
:101050004B07DB0E9A40C90810B500EB8100016A0E
:101060000F249C40A1430162016A1143016210BD3B
:1010700002460020128A0A4200D0012070470185F2
:101080007047816170470AB181617047018570477F
:101090000549096889B201EBC000044901EB400031
:1010A000008980B270470000505C00400060004042
:1010B0000549096889B201EBC000044901EB400011
:1010C0008089C0F309007047505C00400060004018
:1010D0000449096889B201EBC000034931F81000E6
:1010E00080B27047505C0040006000400A4810B574
:1010F0000168001D0468001D006808180BD0082254
:10110000064900F0E7F8054920460422BDE81040F2
:10111000103100F0DFB810BDACF7FF1F8E000020CB
:10112000FEE7C16170470029016802D041F001016A
:1011300001E021F001010160704702460020926940
:101140000A4200D00120704710B5026822F0010267
:1011500002600268124B1A40D1E9013442EA0422CB
:10116000134303600A6822F070620261026842F071
:101170000102026000228260C2600B698A691A4320
:101180008260826842F400428260CA680368134346
:1011900003604268034B49691A401143416010BD26
:1011A000FFE0CF00FF7FFF07406AC0B27047816257
:1011B0007047000070B54468049DC1F30901044EF6
:1011C00041EA02411943344029432143416070BD43
:1011D000009800FC10B5134C2068017A022904D055
:1011E000042902D0062905D015E0FFF777FC206816
:1011F000007A11E04178052909D10178490606D124
:10120000C07801F07BFA08480068006A8047074808
:10121000006880688047082021680872BDE8104097
:1012200000F0E0BC08000020100000200C000020AE
:101230007FB500248DF808401C208DF8090080251A
:101240008DF80B508DF80A4002A800F0A1FA8DF835
:10125000004060208DF8010007208DF802008DF815
:10126000064008208DF804408DF803008DF80540F5
:10127000684600F0DBF98DF80C5010208DF80D0059
:101280008DF80E408DF80F4003A800F0B1F97FBD36
:101290003EB508208DF8000007208DF802004020A0
:1012A00000248DF801008DF804408DF805402020C1
:1012B0008DF806008DF80340684600F054F88DF86C
:1012C00008408DF8094002A800F034F8102000F022
:1012D0001DF83EBDF0B500230A24302537261F46F1
:1012E00011E000BFB4EB107F02D905EB107C01E0E8
:1012F00006EB107C01F813C001EB430C00015B1CF2
:101300008CF80170DBB29342ECD3F0BD38B50446E3
:1013100001222421684600F0EFF89DF80000012228
:1013200000F0EF0020438DF800002421684600F013
:101330003DF938BD38B5044601222121684600F048
:10134000DBF89DF8000000F0C0018DF80010207857
:101350006278104308438DF800000122212168467D
:1013600000F024F938BD1CB5044600208DF80000BB
:101370008DF8040000F022F820786178E2780843C4
:10138000A178114308439DF800109DF804200843FC
:101390008DF80000207961790843A1791143084351
:1013A0008DF8040001222021684600F0FFF8012298
:1013B000232101A800F0FAF81CBD00002DE9F0413E
:1013C00001210F0388B0384600F068FC0121480471
:1013D00000F040FC01214C05204600F03BFC0121BF
:1013E000204600F037FC0121204600F033FC0522A6
:1013F0004FF0904811464046FFF72AFE052206218D
:101400004046FFF725FE052207214046FFF720FE54
:1014100002268DF8046000248DF8064020208DF807
:101420000740032500908DF8055069464046FFF7B8
:10143000D3FD8020009069464046FFF7CDFD402057
:10144000009069464046FFF7C7FDDFF8A48040469C
:1014500001F034F84FF4E060ADF80C00ADF8104046
:101460003002ADF812001020ADF814000720ADF8DE
:101470001800ADF808404FF48270ADF80A00ADF8DE
:101480000E40ADF8164002A9404601F048F8394632
:10149000404601F083F80121404601F005F801279C
:1014A00008208DF80470DFF84C8000908DF806401D
:1014B0008DF8055069464046FFF78EFD08214046ED
:1014C000FFF7DFFD8DF804408DF806408DF80550DC
:1014D00000978DF8074069464046FFF77DFD694655
:1014E00040460096FFF778FD08B0BDE8F0810000A7
:1014F00000300140001000482DE9F0411446054637
:10150000012A02D941F0C00601E041F080060C4FEB
:1015100008213846FFF7B3FD304600F013F806E027
:10152000002000F00FF8641E05F8010BA4B2002C97
:10153000F6D13846BDE8F0410821FFF7A2BD000012
:10154000001000482DE9F041154C4FF48056074635
:101550002660144D03E02068411E21600FD3022154
:10156000284600F0D5FF0028F5D03946284601F07E
:101570001DF8266008E02168481E206004D200F0B3
:1015800013F8C0B2BDE8F0810121284600F0C0FF89
:101590000028F0D02846BDE8F04100F0FDBF000073
:1015A0004000002000300140002070472DE9F0414C
:1015B000144605460E46012A01D941F040060B4F5C
:1015C00008213846FFF75BFD3046FFF7BBFF05E01B
:1015D0002878FFF7B7FF641EA4B26D1C002CF7D16A
:1015E0003846BDE8F0410821FFF74BBD0010004828
:1015F00038B5044601236A462121322000F0F8F86C
:101600009DF8000000F00C008DF800002178627851
:10161000E3781143A2781A43114301438DF8001077
:101620006A462121322000F061F938BD1CB504461C
:1016300000208DF800008DF8040000F021F82078DB
:1016400061789DF800200843A178114308438DF884
:10165000000020796179E2780843A17911430843B9
:101660009DF804106A4608438DF8040020213220BA
:1016700000F03CF901AA2321322000F037F91CBD0B
:10168000F0B501214C058BB0204600F0EFFA0121A6
:10169000880400F0DFFA0121204600F0DBFA012186
:1016A000204600F0D7FA0121204600F0D3FA344F4B
:1016B000042206213846FFF7CBFC042207213846D6
:1016C000FFF7C6FC02258DF8045000248DF8064073
:1016D00040208DF80750032600908DF8056069467C
:1016E0003846FFF779FC8020009069463846FFF7BE
:1016F00073FC8DF804408DF806400420214F8DF8CE
:10170000074000908DF8056069463846FFF764FC95
:101710000221042000F0D6FF8DF8284008208DF823
:10172000290001208DF82A00099509A8FFF7D8FBA8
:1017300007941548154D039402900594049406945B
:1017400002A908942846FFF7FFFC01212846FFF76D
:10175000EAFC8DF8044010208DF8064000908DF8CA
:1017600005608DF8074069463846FFF735FC2020B4
:10177000009069463846FFF72FFC0BB0F0BD000023
:10178000000400480010004825209000005400404C
:101790003EB5044600208DF800008DF804008DF859
:1017A0000800FFF76DFF207861786A4608439DF8CE
:1017B000001008438DF80000E0789DF804100843FD
:1017C0008DF80400A0789DF8081008438DF80800F3
:1017D00000213C2000F08AF801AA01213C2000F001
:1017E00085F802AA02213C2000F080F83EBD0000EE
:1017F0002DE9F84F3A4C4FF420451E4690460F46CF
:10180000834625604FF4004ADFF8D89003E0206853
:10181000411E216053D351464846FFF78EFC0028F5
:10182000F5D14FF40050009000230122594648465C
:10183000FFF7C0FC256003E02068411E21603ED315
:1018400002214846FFF779FC0028F5D0012E01D986
:1018500047F0800739464F464846FFF7A8FC256009
:1018600003E02068411E216029D340213846FFF75C
:1018700064FC0028F5D04FF410500090F2B24FF005
:10188000007359463846FFF795FC10E02068411E6A
:10189000216014D304213846FFF74FFC0028F5D00F
:1018A0003846FFF781FC761E08F8010BB6B22560BA
:1018B000002EEFD108E02168481E206004D200F01D
:1018C00013F880B2BDE8F88F20213846FFF735FCC9
:1018D0000028F0D020213846FFF723FC0020F1E754
:1018E0004400002000540040002070472DE9F84FCC
:1018F000344C4FF4204617468A46814626604FF402
:101900000048314D03E02068411E216049D3414623
:101910002846FFF712FC0028F5D14FF40050C3020F
:101920000090012249462846FFF744FC266003E068
:101930002068411E216034D302212846FFF7FDFBB9
:101940000028F5D051462846FFF731FC266003E019
:101950002068411E216024D380212846FFF7EDFB3B
:101960000028F5D0002000904FF000730122494676
:101970002846FFF71FFC266003E02068411E216017
:101980000FD302212846FFF7D8FB0028F5D039787D
:101990002846FFF70CFC266008E02168481E2060FE
:1019A00004D2FFF7A1FF80B2BDE8F88F20212846BE
:1019B000FFF7C3FB0028F0D020212846FFF7B1FB3A
:1019C0000020F1E7440000200054004010B5124C04
:1019D000012000F0C5FA00F0E1FA1049087011206A
:1019E00000F09CFA0028FAD0012000F0C1FA19207A
:1019F00000F094FA0028FAD0022000F0BFFA00BFED
:101A000000F0A6FA0828FBD1A17A054809B1052102
:101A100000E00121016010BDCC0100207400002015
:101A200084010020FEE770477047000070B50F2367
:101A3000C47801780122F4B1144C2468457804F488
:101A4000E064C4F5E064240AC4F10406E340847849
:101A5000B5401C402C4301F1E021230181F8003402
:101A6000007800F01F018A404009800000F1E0206A
:101A7000C0F8002170BD01F01F00824048098000BD
:101A800000F1E020C0F8802170BD00000CED00E006
:101A90000249084302490860704700000000FA0547
:101AA0000CED00E070B52F4D2868017844784A06A7
:101AB00006D001F07F00012828D002282BD035E085
:101AC000092C06D0052C07D0032C0ED0012C14D0E5
:101AD0002CE001F0B3F828E0C1787F292ED8817876
:101AE00061BB818851BB807A27E0C17801291DD173
:101AF0008088D8B901F0BEF817E0C178012915D166
:101B0000818899B9407A80060AD40FE00B2C0DD158
:101B100001F006F909E0012C02D0032C03D005E006
:101B200000F08EFF01E001F0B7F858B10E492046F1
:101B3000096849698847032802D018B108200DE0D8
:101B400009200BE0094A062000211268084B120404
:101B500003EBD2325160074A3021118029680872A4
:101B600070BD0000080000200C000020505C004008
:101B7000006000401800002010B50F4C2068007A6B
:101B8000022811D004280FD0032804D0052802D041
:101B9000072805D008E0FEF7FBFF2068007A04E084
:101BA00006480068C0688047082021680872BDE8C0
:101BB000104000F017B80000080000200C000020C2
:101BC000064B521C520803EB410105D031F8043B8F
:101BD00020F8023B521EF9D170470000006000401F
:101BE000704700000C4810B590F82C10002000F051
:101BF000B9FD0A480068007A082802D0092809D0EF
:101C000006E007494FF480500880064910200880FC
:101C1000002010BD012010BD0C0100200800002094
:101C2000160000201800002010B5012001F05AF91C
:101C30000648012101600021054A0160031D196069
:101C40004FF4E05111800160002010BD405C004065
:101C500014000020044A0029516901D0014300E02A
:101C6000814351617047000000100240044A00297E
:101C7000D16901D0014300E08143D1617047000088
:101C800000100240044A0029116901D0014300E01C
:101C9000814311617047000000100240044A00298E
:101CA000916901D0014300E08143916170470000D8
:101CB00000100240044A0029D16801D0014300E02D
:101CC0008143D16070470000001002402DE9F04FC1
:101CD0008E4900224B688E4C13F00C0303D0042B6A
:101CE00001D0082B01D0046012E04A684B6802F46E
:101CF00070124FF0020513F4803F05EB924239D089
:101D0000CB6A03F00F035B1CB4FBF3F35A4302608E
:101D10008A46884649680F23DFF8F89103EA1111D3
:101D200019F80170016821FA07F34360D8F80450EC
:101D3000072606EA152519F8055023FA05F58560EA
:101D4000D8F804C006EADC2619F80660F340C36040
:101D5000D8F82C809C464FF01F0B0BEA181309F1A2
:101D6000100E3EF813305FEAC36806D5B2FBF3F3FA
:101D7000036103E0684B5A43C9E70161DAF82C803C
:101D8000D1460BEA58233EF813305FEAC36803D507
:101D9000B2FBF3F3436100E04161D9F830804B4678
:101DA0005FEAC86801D4846100E08161D3F83080C3
:101DB0005FEA886801D4C46100E0C161D3F8308073
:101DC0005FEAC85808D5914206D1BE4204D14FEA15
:101DD0004208C0F8208001E0C0F820C0D3F830806D
:101DE0005FEA885806D5914204D1BE4202D1520022
:101DF000426201E0C0F824C01A6B96074FF400421B
:101E00000ED01E6B06F00306012E0CD01E6B06F0E2
:101E10000306022E09D01E6BF643B60707D007E073
:101E2000C0F828C004E0816202E0826200E08462BF
:101E30001E6B16F4403F0FD01E6BC6F30146012EF9
:101E40000CD01E6BC6F30146022E09D01E6BC6F3E2
:101E50000146032E06D006E0C56204E0C16202E03E
:101E6000C26200E0C4621E6B16F4402F0FD01E6BDE
:101E7000C6F38146012E0CD01E6BC6F38146022E9E
:101E800009D01E6BC6F38146032E06D006E005631B
:101E900004E0016302E0026300E004631E6B16F4D9
:101EA000401F0FD01E6BC6F30156012E0CD01E6BC7
:101EB000C6F30156022E09D01E6BC6F30156032E3F
:101EC00006D006E0456304E0416302E0426300E0BF
:101ED00044631E6B16F4400F11D01D6BC5F3815582
:101EE000012D0ED0196BC1F3815102290BD0196B52
:101EF000C1F38151032900D18463BDE8F08F85636C
:101F0000FBE78163F9E78263F7E700000010024016
:101F100000127A004800002000093D00034600201E
:101F20000A4A59090CD001290CD004290CD0516A55
:101F300003F01F02012393400B4200D001207047A1
:101F40001168F5E7116AF3E75168F1E70010024004
:101F50000248406800F00C0070470000001002408A
:101F6000024900228A708870704700000010024009
:101F7000014908667047000000004242034A516868
:101F800021F003010143516070470000001002403E
:101F90000149C1F8D80070470000424218B500203E
:101FA0004FF4A06400901120FFF7B8FF0099491C7E
:101FB0000091A14201D00028F5D01120FFF7AEFF1B
:101FC000002800D0012018BDF0B504462DED028B8D
:101FD00085B09FED3B8A02236A4623213220FFF71A
:101FE00007FC062303AA28213220FFF701FC9DF8F5
:101FF0000100C0F380139DF80000C0F3801100F0D1
:1020000030060BB1062500E0042501A803AA01B1A2
:10201000A3B1002102EB410C12F811709CF801C031
:102020004FEA0C2C07FA8CF72F4120F81170491C4D
:102030000329EFDB93B1B1EE008A1FE05FF00001EE
:1020400002EB410312F811705B783F0203FA87F349
:102050002B4120F81130491C0329F1DB76B1102EF9
:1020600004D0202E05D0302E08D105E09FED158A32
:1020700004E09FED158A01E09FED148ABDF904008C
:1020800000EE100AB8EEC00A20EE480A84ED000AFD
:10209000BDF9060000EE100AB8EEC00A20EE080AEC
:1020A00084ED010ABDF9080000EE100AB8EEC00A7E
:1020B00020EE080A84ED020A05B0BDEC028BF0BDEB
:1020C0000AD7233C0AD7A33C0AD7233D4490F53DC9
:1020D00010B504462DED028B84B000208DF8000071
:1020E0009FED488A01236A46F0EE488A19463C2053
:1020F000FFF77EFB062301AA03213C20FFF778FBB4
:102100009DF8000000F0E0009FED3F0A80281DD000
:1021100006DC20280BD040280ED0602829D110E002
:10212000A02818D0C0281BD0E02822D11DE09FEDA8
:10213000378ADFED378A1CE09FED368ADFED368A7D
:1021400017E09FED368ADFED368A12E09FED358A83
:10215000F0EE408A0DE0B0EE408ADFED338A08E011
:102160009FED328ADFED328A03E09FED328ADFEDA8
:10217000328ABDF8040040BA00B200EE100AB8EE90
:10218000C00AC0EE080AC4ED000ABDF8080040BA53
:1021900000B200EE100AB8EEC00AB1EE401A81EEAD
:1021A000080A84ED010ABDF8060040BA00B201EE4B
:1021B000100A2248B8EEC11AF1EE411A81EEA81AAF
:1021C000D0ED001A70EEE10AD0ED011A60EEA10A1E
:1021D000C4ED000AD0ED020A30EE600AD0ED030A29
:1021E00020EE200A84ED010A90ED040AD0ED050AE4
:1021F00031EE400A20EE200A84ED020A04B0BDEC64
:10220000028B10BD000000000000C843008089441C
:102210000000754400C0554400003E44008027443F
:10222000000016440000E1430080B1430000A543D4
:10223000008093430000664300004D43B00100203E
:102240002DE9F04F00252DED088B87B0824693468F
:10225000894600950195029503950495DFED5FAAE7
:1022600068460595FFF734FF03A8FFF7ADFE5C4C09
:1022700003AF9FED5C9BB6EE008A00BF04EB8506C2
:102280003068FEF7BDF853EC192BFEF747F841EC28
:102290001B0B07EB850090ED000A20EE080A10EEFC
:1022A000100AFEF7ADF853EC1B2BFDF790FFFEF77D
:1022B000BAF86D1CEDB23060032DDFD3484E002517
:1022C000E8460C3606EB85073868FEF799F853ECBC
:1022D000192BFEF723F841EC1B0B08EB850090ED62
:1022E000000A20EE080A10EE100AFEF789F853ECF7
:1022F0001B2BFDF76CFFFEF796F86D1CEDB23860F6
:10230000032DDFD3D4ED020A94ED010A01F086F823
:10231000B0EE408A94ED010AD4ED020A20EE000AE4
:1023200000EEA00A10EE100AFEF76AF841EC100B5E
:1023300001F00CFB51EC100BFEF775F800EE900A63
:1023400094ED000A01F06AF8F1EE408AB0EE480A16
:1023500001F034FAB0EE409AB0EE480A01F086F986
:10236000F0EE409AB0EE680A01F028FAB0EE40AA0A
:10237000B0EE680A01F07AF996ED001AF0EE401A14
:1023800096ED022A21EE090A61EE290A20EE0A1AC8
:1023900096ED010A42EE0A0A22EE092A00EE291AF7
:1023A000B0EE410A02EE610A01F038F89FED0F0A23
:1023B000DFED0F0ACAED00AA28EE001A28EE800A07
:1023C000C1EE201A80EE201AC9ED001A8BED001A1A
:1023D00007B0BDEC088BBDE8F08F000000000000E6
:1023E00048020020000000000000E03F00003443ED
:1023F000DB0F49402DE9F041214C072800D0207027
:1024000022781F4D0627052104261E48062A0BD2D6
:10241000DFE802F0030C11161E27686810B1217066
:10242000BDE8F08100F030F82770F9E700F02CF8F3
:102430002670012022E00220607003202070EFE768
:102440006078401E607060780028E9D12670E7E768
:10245000026892B242F01002026021700A2060709D
:10246000DEE76178491E617061780029D8D1016882
:1024700089B221F010010160277000206860CFE769
:102480008C010020405C004010B5064C206880B2F2
:1024900020F004002060FFF799FA4FF43F402060DD
:1024A00010BD0000405C00400029018802D041F0CE
:1024B000400101E021F0400101807047114910B551
:1024C00088420AD1841401212046FFF7F3FB2046FD
:1024D000BDE810400021FFF7EDBB0B49884202D157
:1024E0000121041404E0094988420AD10121C413DE
:1024F0002046FFF7C7FB2046BDE810400021FFF74C
:10250000C1BB10BD0030014000380040003C00401D
:102510000246002012890A4200D00120704730B5DF
:102520004A88B2F5827F1ED0828822F470638A883E
:102530001A43828002880C8902F44153CA888D892B
:1025400022434C892C43CD892C4322430C884D884F
:102550002C4322431A430280828B22F4006282833E
:10256000098A018230BD02880C8902F44153CA886D
:102570008D8922434C892C43CD892C4322430C88DE
:1025800044F4827422431A430280828822F47063E6
:102590008A881A438280DFE7007B7047828822F4B2
:1025A0008052828082880A4382807047017370471C
:1025B0001CB504460E48012150F82400FFF74AFBE1
:1025C0000B480021103830F81400009001208DF8DD
:1025D00004008DF806108DF8070003208DF8050023
:1025E0000448694650F82400FEF7F6FC1CBD0000C4
:1025F00090450008200000200349044A31F81010DB
:1026000052F8200001857047804500082000002016
:102610000349044A31F8101052F82000FEF728BD93
:10262000784500081C00002070B5044622480E467C
:1026300086B050F824000121FFF70CFB0121084669
:10264000FFF72CFB1C4800258DF81050001F8DF85B
:10265000135030F814000390184803A950F82400D0
:10266000FEF7BAFC012E25D11348C01F015D401EA4
:10267000005D00F027F81048801E30F8140000902C
:102680008DF8045008208DF8050001258DF80650BE
:102690006846FEF725FC0848801F005D8DF808009D
:1026A0000F208DF809008DF80A008DF80B5002A854
:1026B000FFF7BCF906B070BD7C4500081C00002087
:1026C0007047000010B58A0721F003040649130F74
:1026D00021440F228C689A4094438C608A68984009
:1026E00002438A6010BD000000000140024920F052
:1026F0000700086070470000505C0040F0B50E49CC
:102700000E4D48F68F770B78002148F2800C0BE0D5
:10271000CEB205EB8604D4F8002C3A40324342EAAC
:102720000C02C4F8002C491C9942F1D3044940F032
:1027300080000860F0BD00005C01002000500040F7
:102740004C5C0040054A21F00101126892B202EB94
:10275000C000034A02EB400081607047505C0040BB
:10276000006000400D4A12683E2992B202EBC000A0
:102770000B4A02EB400209D94809C90601D1401EA3
:1027800080B24FF4004141EA802004E04808C907C4
:1027900000D0401C8002106070470000505C004078
:1027A0000C60004082000A480244D2F8000C4BF64C
:1027B0008F731840CB0401D580F48050890401D573
:1027C00080F4005048F280010843C2F8000C7047C2
:1027D00000500040810007480144D1F8000C4BF63E
:1027E0008F72104080F4405048F280021043C1F8CC
:1027F000000C704700500040054A21F001011268AA
:1028000092B202EBC000034A42F810107047000079
:10281000505C004000600040044A126892B202EB33
:10282000C000034A02EB400041607047505C00402A
:102830000060004082000A480244D2F8000C48F6CA
:10284000BF731840CB0601D580F01000890601D572
:1028500080F0200048F280010843C2F8000C704765
:1028600000500040810007480144D1F8000C48F6B0
:10287000BF72104080F0300048F280021043C1F86F
:10288000000C704700500040820005480244D2F816
:10289000000C48F68F1318400843C2F8000C70472C
:1028A000005000400CB500212148019100910268C0
:1028B00042F4A02202604FF4A063026802F40032E6
:1028C0000092019A521C0192009A12B9019A9A42FE
:1028D000F3D10268920329D50121164A00911221F1
:1028E00011604168416041684160416841F4806124
:1028F0004160416821F47C114160416841F4E81174
:102900004160016841F08071016001688901FCD576
:10291000416821F003014160416841F002014160DA
:102920004168C1F381010229FAD10CBD00910CBDAF
:1029300000100240002002407CB501210807FFF78B
:1029400095F901210846FFF7A9F901214805FFF78C
:1029500081F901214804FFF77DF94FF4C050009040
:1029600003208DF8050002208DF8040000248DF866
:1029700006404FF090458DF8074069462846FEF71F
:102980002BFB0E220B212846FEF762FB0E220C21A8
:102990002846FEF75DFB01210020FFF745FE1220CF
:1029A000FEF778FA0648122101600471082141718E
:1029B00001218171FEF794FA0020FEF76BFA7CBDCD
:1029C0008000002010B50020FFF7E2FA0121BDE8E9
:1029D0001040C805FFF74AB970B516480068174D92
:1029E0000004C10B14480144098989B200EB410479
:1029F0002868017A09290FD0217801706178417027
:102A0000A088FDF767FF296848802089FDF762FFED
:102A100029688880A089C880286801210172C0883F
:102A200028B1FEF707F9BDE87040FFF7DBB8FFF704
:102A300039F8F8E7505C00400060004008000020D2
:102A40002DE9F04138480068017811F07F0102D08B
:102A5000022905D066E0417A01F0DF0141724EE0C3
:102A6000418800295ED10179F1BB4179304D21F0D7
:102A700080040A0605EB84022C4BD2F8002C03D507
:102A8000C2F30112120102E0C2F3013212031E78F6
:102A90002346A64246D93AB3807A28B308064FEABD
:102AA00084000ED52844D0F8000CC0F30110012892
:102AB00021D11846FDF7EEFF20463021FFF7BAFE80
:102AC00019E04619D6F8000CC0F30130012812D1E4
:102AD0004BF68F7748F28008A4B11846FDF7C6FF81
:102AE000D6F8000C384000E01CE080F4405040EA8A
:102AF0000800C6F8000C0F480068406980470020B5
:102B0000BDE8F0810C4890F82C100020FFF72AFE59
:102B1000D5F8000C384080F4405040EA0800C5F871
:102B2000000CE8E70220EBE7080000205C01002031
:102B300000500040100000200C01002010B5074C90
:102B400030B1074800680068804720680A3010BD2F
:102B5000216801200882002010BD0000080000202C
:102B600010000020054A13685A8A10B10868104402
:102B700070478888801A188200207047080000205B
:102B800010B5074C30B1074800688068804720685E
:102B90000C3010BD216801200882002010BD00000B
:102BA0000800002010000020204910B5096860B11D
:102BB0001F48002202800A7853060AD002F07F02E2
:102BC000012A16D0022A16D001E002200882002035
:102BD00010BD497A8A06027802D542F0020201E06D
:102BE00002F0FD0249060270D1B211D401F0FE01DB
:102BF00010E00F4810BD4A79110713060D4A02EB89
:102C00009161D1F8001C07D5C1F3011106E00178EC
:102C100041F00101017003E0C1F301310129F6D057
:102C20000548006800698047E3E7000008000020CD
:102C30000200002000500040100000200A4810B59B
:102C400000680A4AC1785278914203D882780AB95A
:102C500082880AB1022010BD817205480068406870
:102C60008047002010BD0000080000205C0100200B
:102C700010000020064810B50068417A41F020019C
:102C8000417204480068C0698047002010BD000000
:102C9000080000201000002070B51D481D4D03687D
:102CA000597921F0800005EB80000C06D0F8004C2B
:102CB00021F0800203D5C4F30114240102E0C4F31F
:102CC00001342403144D2D78954210D95A8872B9D5
:102CD0006CB19A7A5AB10906D0F8001C48F2800209
:102CE00007D548F6BF73194081F0100106E00220B5
:102CF00070BD4BF68F73194081F480511143C0F8B9
:102D0000001C0648006880698047002070BD0000F4
:102D100008000020005000405C010020100000204E
:102D200010B50E4C0E4A20681268C178926940793D
:102D3000904721688A7A22B118B9087908B9887849
:102D400008B1022010BD07480068C06880472068AD
:102D50004179C172C1780173002010BD08000020C4
:102D60000C00002010000020F8B52B490020009036
:102D70000A682A4B2A4C92B203EB8005D5F8005C16
:102D8000ADB244F82050401C0828F5D342F48060CE
:102D9000086040F00100086020F001050D601E4A47
:102DA000121D10684005FCD54FF6FF301060002062
:102DB00054F8206003EB8007B6B2C7F8006C401CE3
:102DC0000828F5D345F008000860086880B240F094
:102DD00004000860134B18680090186820F0030086
:102DE00040F0010018601048046844F004040460D6
:102DF0001468E40401D430BF09E04EF6FF74146097
:102E00000A6892B222F008020A600099196001680B
:102E100021F004010160F8BD405C0040005000401A
:102E2000280200200070004010ED00E010B500F016
:102E300045F804480168491E016003490878401CB0
:102E4000087010BDAC01002094010020164810B598
:102E5000016841F4700101601448016841F001010A
:102E600001604168124A114041600168114A1140F5
:102E70000160016821F480210160416821F4FE01B4
:102E80004160C16A21F00F01C162016B0A4A114021
:102E9000016300218160FFF705FD03494FF00060E9
:102EA0008039086010BD000088ED00E0001002408D
:102EB0000CC07FF8FFFFF6FECCFC00FF0348416822
:102EC000002902D04168491E4160704794010020EA
:102ED00010B50020FFF78EFABDE810401220FDF774
:102EE000D9BF0000044A00284FF48041104601D0A9
:102EF000FEF7C5B8FEF7C5B80010004806480549FA
:102F0000022201600A72064A0449C0E901120868F7
:102F100000470000CC010020080000200C01002028
:102F20006001002038B54FF4A060FEF7B1FD142019
:102F30008DF8000002208DF8010000258DF8025068
:102F400001248DF803406846FEF770FD2A208DF8B5
:102F500000008DF801408DF803406846FEF766FDDD
:102F600006208DF800008DF801506846FEF75EFDE2
:102F700038BD00002DE9F0414A4E88B00024306889
:102F8000494D68806988494F38880140890505D5D1
:102F90004FF6FF5131602978491C2970698801403A
:102FA000080401D5FDF7B4FC688839884FF6FF386E
:102FB0000840400504D5C6F800803D484068804779
:102FC000698838880140890402D54DF6FF71316067
:102FD00069880140C80405D54EF6FF7030600020B6
:102FE000FFF708FA68883988084000050BD5314892
:102FF000007810B1FFF7B8FE02E00220FFF7FAF9FF
:103000004FF2FF703060688839880840C00545D5A8
:103010004FF6FF6030602348001D00684FF000034A
:10302000000437D56868401C68606868032832D996
:103030001C48001F016809072DD4016889B2A960E6
:103040001D496A4601EB8407D7F8007CBFB242F8FD
:103050002470641C082CF5D3AC6844F00104AC6007
:10306000AC68A4B20460AC6824F00104AC60AC6845
:10307000A4B2046030684005FCD5C6F8008000208A
:1030800052F8204001EB8006A4B2C6F8004C401C68
:103090000828F5D36B600720FFF7ACF908B0BDE84E
:1030A000F0810000445C0040AC00002014000020CF
:1030B0000C0100208801002000500040FFF75ABF9B
:1030C00005490020086005494FF43F400880024947
:1030D000091F086000207047445C00401400002075
:1030E000FEE70000094B10B5521C520803EB4101EA
:1030F0000AD000BF10F8013B521E10F8014B43EA02
:10310000042321F8043BF5D110BD0000006000400D
:1031100010B5FFF711FCFFF755FCFFF703FFFFF7B2
:10312000EDFE02490120086010BD0000780000207B
:1031300010B50446064801680129FCD12046FDF778
:103140003FF801462046BDE81040FDF7C9BB00002E
:10315000780000207CB501214804FEF77BFD0120AA
:103160008DF8040000208DF8060003218DF805106D
:103170004FF480548DF807004FF090450094694655
:103180002846FDF729FF002221462846FDF77BFF50
:103190007CBD0000104A10B500211268212802D021
:1031A000202807D016E0107800F07F00212811D1E8
:1031B0000A4908E0107800F07F00212800D1084972
:1031C000084B2020187029B1002091615082884757
:1031D000002010BD022010BD0800002001320008B0
:1031E00075330008F00000200149FFF7BBBC000068
:1031F000040100200149FFF7B5BC0000FC000020DD
:1032000008B1044870470449082009680882002072
:1032100070470000F40000200800002005490968FC
:10322000C978042901D900207047034A02EBC10183
:10323000FFF798BC080000203C01002009B90128D4
:1032400001D9022070470020704700000749096833
:10325000097801F07F01212903D1022803D0222817
:1032600001D00220704700207047000008000020B5
:10327000334810B50068334A00218172D279427216
:10328000C1720846FFF732FA4FF400710020FFF7D1
:10329000FBFA10210020FFF7CDFA40210020FFF7B4
:1032A00051FA80210020FFF7A7FA0020FDF706FC65
:1032B000254890F82C100020FFF754FA0020FFF763
:1032C00089FA00210120FFF7DFFAC0210120FFF772
:1032D00093FA20210120FFF7ADFA00210120FFF72A
:1032E00061FA4FF4C0610220FFF7CEFA4FF480710B
:1032F0000220FFF781FA00210220FFF753FA202174
:103300000220FFF797FA00210320FFF7BDFA4FF4E0
:1033100088710320FFF716FA40210320FFF722FAF5
:103320004FF440510320FFF73DFA00210320FFF73F
:1033300081FA0020FFF7E2F904490120086010BD7E
:1033400008000020C24500080C0100208401002074
:103350000348807A002802D002490520086070479F
:10336000CC0100208401002001490420086070473E
:103370008401002008B10448704704490820096806
:103380000882002070470000F400002008000020A0
:1033900003480178202901D1002101707047000005
:1033A000F00000207047000010B5FDF79FFE0548B3
:1033B000002400688472FEF737FCFFF781FE0248A4
:1033C000046010BD08000020840100200FB4084BE9
:1033D00010B504A902AA039800F07EFC044602A9D5
:1033E000002001F010F8204610BC5DF814FB00002E
:1033F000074400084100080218BF04200A0E18BF45
:1034000040F001004FF07F4232EA010108BF40F076
:103410000200012808BF05207047000010EE100AC6
:1034200010B510EE901A4FF0684202EB40032DEDFC
:10343000028BB3F1654F3CBF02EB4102B2F1654F25
:103440007CD200BFC0F3C753C1F3C7529A1A1B2ADC
:1034500009DD10F0004F14BF9FED6E0A9FED6E0A5C
:10346000BDEC028B10BD12F11A0F1BDA11F0004FE8
:1034700009D010F0004F0CBF9FED680A9FED680A5D
:10348000BDEC028B10BD80EE208A18EE100AFFF70B
:10349000B1FF042808BF00F0A5FAB0EE480ABDEC61
:1034A000028B10BD4200B2EB410F37D910F0004F34
:1034B00019BFDFED5C1A9FED5C1ADFED5C1A9FED22
:1034C0005C1AB0EE602A0A46F1EE400A80F0004134
:1034D000B0EE420A10460A1A5200B2F1807F34D28E
:1034E000484010F0004FDFED532A9FED533A1DBFC7
:1034F000BEEE002A71EEE21A31EE431AB6EE002A51
:1035000004BF71EEA21A31EE031AF0EE402A42EE29
:10351000602A40EE020A82EEA02A18E011F0004F65
:1035200004BF9FED461AF0EE411AD4D010F0004FC0
:103530001CBFDFED431A9FED431A00E026E004BFF5
:10354000DFED411A9FED411AC5E780EE202A22EEF9
:10355000020ADFED3F0ADFED3F2ABDEC028B40EEB1
:10356000202ADFED3D0A40EE220ADFED3C2A40EE44
:10357000202ADFED3B0A40EE220A22EE000A00EE8E
:10358000201A31EE020A30EE210A10BD4FF07F42C0
:10359000B2EB400F28BFB2EB410F05D2BDEC028B5E
:1035A000BDE8104000F012BA40EA01035B0008BF1A
:1035B00041F0FF410BD0B2EB400F08BFB2EB410F1F
:1035C00008D120F0804000EE100A21F0804100EE8A
:1035D000901A37E7B2EB400F12BF5FEA410240F0AA
:1035E000FF4001F000413FF42DAF4A0092EA400352
:1035F0003FF528AF002AACBF9FED1A1A9FED1A1AAB
:1036000020EE010A60EE810A10EE100A10EE901A08
:1036100018E70000DB0FC9BFDB0FC93FDB0F4940D4
:10362000DB0F49C00000C9BF22AAFDB90000C93F95
:1036300022AAFD390060ED3EC30ACE37000000002B
:10364000000049C022AA7DBA0000494022AA7D3A62
:103650002DAD65BD8FB8D53D0FB511BE61C84C3ECF
:10366000A8AAAABE0000804F0000802F10EE101AFA
:1036700008B5444A6846B2EB410F28D94FF0E640FE
:10368000B0EB410F94BF00204FF0FF300090009846
:10369000002861DB60EE000A10F0010F45D010F049
:1036A000020FDFED391A9FED391A00EEE11ADFED56
:1036B000381A40EE811A21EEA01AF0EE400A40EED0
:1036C000010A08BFF1EE600AB0EE600A08BD314B96
:1036D00021F0004293423CD911F0004FDFED2E0A59
:1036E00020EE201ADFED2D0A19BF31EE601A71EEBF
:1036F000200A31EE201A71EE600ABDEEE01A11EEDA
:10370000100A9FED271A00F0030000EEC10A9FED9A
:10371000251A009000EEC10A9FED231A00EEC10A9F
:103720009FED221A00EEC10AB1E79FED211A9FED2D
:10373000210A10F0020F00EE810A9FED1F1A00EE21
:10374000801AB7EE000A00EE810A18BFB1EE400AF7
:1037500008BD00F04FF99AE710EE100A4000B0F1F2
:103760007F4F3CBFB7EE000A08BD07D14FF0010004
:1037700000F0FAF9BDE8084000F02CB9BDE80840B7
:1037800000F021B9B61F927E336D4C39DA82083CC5
:10379000A0AA2ABE490E494683F9223F0000004BE9
:1037A0000000C93F00A0FD390020A2331A61342C6B
:1037B000B93AB2BACA9F2A3DDDFFFFBE00B510EE8E
:1037C000101A2DED028B81B0524A6846B2EB410FC0
:1037D0002ED94FF0E640B0EB410F94BF00204FF0E0
:1037E000FF3000900098B0EE408A00286ADB10F0AD
:1037F000010F4BD068EE080A9FED471A9FED470A6C
:1038000000EE810A9FED461A10F0020F00EE801ABA
:10381000B7EE000A00EE810A02BF01B0BDEC028BD8
:1038200000BD00BF01B0B1EE400ABDEC028B00BD8F
:103830003C4B21F00042934241D911F0004FDFEDA3
:103840003A0A20EE201ADFED390A19BF31EE601A6C
:1038500071EE200A31EE201A71EE600ABDEEE01A18
:1038600011EE100A9FED321A00F0030000EEC10ABB
:103870009FED301A009000EEC10A9FED2F1A00EE66
:10388000C10A9FED2E1A00EEC10AABE728EE080A26
:103890009FED2B1ADFED2B0A10F0020F40EE410ACC
:1038A0009FED291A00EE201A61EE000AB0EE480AD8
:1038B00008EE200AB6D101B0BDEC028B00BD00F0CD
:1038C00099F88FE718EE100A4000B0F17F4F0DD243
:1038D00018EE100AFFF78EFD042808BF00F082F8EA
:1038E000B0EE480A01B0BDEC028B00BD09D1012049
:1038F00000F03AF901B0BDEC028B5DF804EB00F08A
:1039000069B801B0B0EE480ABDEC028B5DF804EB7B
:1039100000F059B8B61F927EB93AB2BACA9F2A3D92
:10392000DDFFFFBE490E494683F9223F0000004BF0
:103930000000C93F00A0FD390020A2331A61342CD9
:10394000336D4C39DA82083CA0AA2ABE00B52DEDB1
:10395000048BB0EE409AF0EE609A83B051EC190BF4
:10396000FCF7E8FE41EC180B18EE100A18EE901A5E
:103970008DED008B002818BF0120084320F0004087
:10398000C0F17F6000F1E040C00F14D019EE101AB2
:1039900019EE900A8DED009B002918BF0121084304
:1039A00020F00040C0F17F6000F1E040C00F04BF94
:1039B000012000F0D9F8B0EE480A03B0F0EE680A32
:1039C000BDEC048B00BD30EE000A704730EE200ADB
:1039D00070470000DFED020A80EEA00A7047000089
:1039E000000000009FED020A20EE000A7047000070
:1039F000000000102DE9F0014FF07F42B2EB410FC3
:103A00009FBF4FF0FF310160BDE8F00170474FF0FC
:103A1000004242EA0123C1F3C752783A551112F02D
:103A20001F0C434CCCF120067C44C1F3C752A2F1D9
:103A300078024FEA621204EB820254F8254008BF74
:103A4000D2E9015612D0556804FA0CF425FA06F7AB
:103A50003C43976805FA0CF527FA06F8D26807FA8E
:103A60000CFCF24045EA08054CEA0206A4FB034CB4
:103A7000A5FB0352A6FB03631D449D4234BF0126F0
:103A800000261319334416B1934202D903E093423E
:103A900001D2012200E00022624402F1200C9206D1
:103AA000DC0C42EA443200EE102A5B03DFED210A0F
:103AB000F8EEC01A00EE103A4FEA9C1C11F0004FCD
:103AC000B8EE400AC0F800C020EE201A00EE105AEE
:103AD000DFED190AB8EE400A20EE200A71EE810AE5
:103AE00070EE800A10EE902A02F500626FF30B026E
:103AF00000EE902A70EEE11A31EEC11ADFED101AD5
:103B000030EE411A9FED0D0A20EE800A01EE210AE7
:103B10009FED0C1A00EE810A04BFBDE8F00170476A
:103B2000CCF180510160BDE8F001B1EE400A704770
:103B3000380C0000000000360000802C22AAFD296D
:103B4000DB0FC92F0000C92F02E008C8121F08C1EF
:103B5000002AFAD170477047002001E001C1121F0E
:103B6000002AFBD17047000001490860704700003F
:103B7000C80100202DE9FF5FDDE90220010DDDF81D
:103B800038B0024318D044F61050A1F2FF3141433F
:103B90000D140F98012820D0A5EB0B00401C5FEA04
:103BA000000A4FF00004474EDFF81C91A046504633
:103BB00016D5CAF1000728E00F98012443A2012876
:103BC00008D0002100980F9BC0E90021C0E9024302
:103BD000BDE8FF9F6FEA0B01F4E7CBF10000DEE7E1
:103BE000074612E0F80707D02246334640464946CA
:103BF000FCF794FB80468946224633461046194618
:103C0000FCF78CFB04460E467F10002FEAD1DDE95D
:103C10000201BAF1000F42464B4602DAFCF77EFB86
:103C200001E0FCF718FD04460E460022284BFCF785
:103C3000EBFD03D84FF0FF30014607E00022254B93
:103C400020463146FCF7C3FAFCF7C5FD102409E015
:103C5000002C0ADB0A220023FCF717FC019B303200
:103C60001A55641E50EA0102F2D1641C019AC4F193
:103C7000110314440F9A012A03D0012208430DD1E5
:103C80000AE0084304D000204FF0110B0F9080E7AA
:103C9000A3EB0B056D1E0DE05B4504DD4FF000024C
:103CA00005F1010504E003DA4FF00002A5F101057A
:103CB000002AECD000980F99C0E90231C0E9004514
:103CC00086E70000000024400000F03F30000000C4
:103CD0000000F0430000E03F2DE9FF4F95B09B4608
:103CE0008946064600250FE2252877D1002427467D
:103CF000F84A0121059400E0044316F8013F203BF7
:103D000001FA03F01042F7D130782A2811D06FF071
:103D10002F033078A0F13002092A16D8059A44F012
:103D2000020402EB820203EB42021044761C05906F
:103D3000EFE759F8042B0592002A03DA504244F4C5
:103D40000054059044F00204761C30782E2816D1D9
:103D500016F8010F44F004042A280DD06FF02F024A
:103D60003078A0F13003092B09D807EB870302EB69
:103D70004303C718761CF3E759F8047B761C3078A8
:103D80006C280FD006DC4C2817D068280DD06A2884
:103D900014D104E0742810D07A280FD10DE044F437
:103DA00000140AE044F4801401E044F440147278F2
:103DB000824202D104F58014761C761C3078662885
:103DC0000BD013DC582877D009DC002875D04528A3
:103DD000F6D04628F4D047281AD19DE118E0632890
:103DE00035D0642879D0652812D195E1702873D038
:103DF00008DC6728F1D069286FD06E280DD06F28B5
:103E000006D1B5E073282CD0752875D0782874D0E9
:103E10005A46179990476D1C75E1C4F30250022869
:103E200009D003280DD0D9F8001004280DD00D605A
:103E300009F1040967E1D9F80010EA17C1E9005255
:103E4000F6E7D9F800100D80F2E70D70F0E719F8E9
:103E5000041B8DF8001000208DF80100EA460120B7
:103E600003E059F804AB4FF0FF3061074FF0000159
:103E700002D40DE008F101018846B9420FDA80450D
:103E8000F8DB1AF808100029F4D108E008F1010164
:103E900088468142FADB1AF808100029F6D1059805
:103EA0005B46A0EB080721463846179A00F094FAC3
:103EB000284400EB080507E04DE029E10DE01AF881
:103EC000010B5A4617999047B8F10108F7D25B46A3
:103ED00021463846179A13E142E00A220092C4F3C1
:103EE00002524FF0000A022A08D059F804CB032AE4
:103EF0004FEAEC710AD00DE029E02AE009F1070150
:103F000021F00702F2E802C1914609E00FFA8CFCA9
:103F10004FEAEC71042A03D14FFA8CFC4FEAEC71A2
:103F2000002907DA0A460021DCF1000C61EB0201EE
:103F30002D2202E0220504D52B228DF80420012237
:103F400003E0E20701D02022F7E7904659E00A217A
:103F500002E010220DE010214FF0000A00910BE06A
:103F600010224FF0000A44F004040827009203E0F6
:103F700008224FF0000A0092C4F30252022A05D030
:103F800059F804CB0021032A08D009E009F1070100
:103F900021F00702F2E802C1914605E01FFA8CFC0D
:103FA000042A01D10CF0FF0C4FF00008220728D59D
:103FB000702806D0009B83F0100353EA0A0305D053
:103FC0000EE040228DF80420012208E05CEA0102A4
:103FD00006D030228DF804208DF80500022290468C
:103FE000009B83F0080353EA0A030AD15CEA01024A
:103FF00001D1620705D530228DF804204FF0010869
:104000007F1E582804D034A003900EA802900DE023
:1040100036A0F9E753466046009AFCF736FA844624
:104020000398825C0298401E029002705CEA0100D4
:10403000F0D1029806A9081A00F1200A600702D5FB
:1040400024F4803400E00127574502DDA7EB0A0085
:1040500000E0002000EB0A01009005984144401A5E
:104060000590E00306D45B462146179A059800F0B8
:10407000B3F90544002706E001A85A46C05D179928
:1040800090476D1C7F1C4745F6DBE0030CD55B4673
:104090002146179A059800F09FF9054404E0302066
:1040A0005A46179990476D1C0099481E00900029A8
:1040B000F5DC08E0029802995A460078491C029102
:1040C000179990476D1CBAF10001AAF1010AF1DCC1
:1040D00065E10000092801003031323334353637CC
:1040E0003839616263646566000000003031323344
:1040F00034353637383941424344454600000000E4
:1041000000F058F90544761C307800287FF4ECADB7
:1041100019B02846BDE8F08F620700D4062709F1E0
:10412000070222F0070CFCE80223E14603F00048F6
:104130005FEA080C02D00FF2702C0DE05FEA045C1D
:1041400002D50FF2682C07E05FEAC47C02D00FF2C0
:10415000602C01E0AFF2700C4FF0FF3823F0004309
:10416000CDF850C065280CD006DC452809D046287B
:104170001DD047283DD13DE0662818D067287ED164
:1041800038E00021112F01DB112000E0781CCDE97F
:10419000000106A90EA8FFF7EDFCDDE90F010E9A5C
:1041A00003910021009207F1010A04914DE04FF0C4
:1041B00000400097CDE9011006A90EA8FFF7DAFC30
:1041C000DDE90F0203920E9B11990022DDF80CA08D
:1041D0000093049211B9791C00EB010AB7EB0A00B5
:1041E00004D4C0F1FF3007F1010A0490AAEB0700E4
:1041F000019044E0012F00DA01270021112F01DD99
:10420000112000E03846CDE9000106A90EA8FFF70D
:10421000B1FCDDE90F010E9A039100210491009297
:10422000BA4621070CD40399514500DA8A46BAF1FF
:10423000010F05DD009AAAF10101515C302908D077
:10424000B84202DA10F1040F06DA0121CDE90110BB
:1042500015E0AAF10101E9E7002805DC0499014411
:104260000491AAEB000102E0411C514500DD8A46A1
:104270000499401A401C01904FF000400290200722
:1042800004D40198504501DBCDF8048000208DF85E
:104290004F0002980DF14F07B0F1004F25D02B20B1
:1042A0000E9002984FF0020800280CDA404202906B
:1042B0002D200E9007E00A210298FCF7D0F830314B
:1042C000029007F8011DB8F10001A8F10108F2DC25
:1042D00002980028EFD1791E0E980870307800F00F
:1042E000200040F0450007F8020D12A8C01B00F1A5
:1042F00007081498007800B1012000EB0A0101982A
:1043000001EBE07105984144401A401E0590E0031E
:1043100006D45B462146179A059800F05DF80544DF
:104320001498007818B15A46179990476D1CE0030D
:1043300024D55B462146179A059800F04DF80544B0
:104340001CE00498002807DBDDE90301884203DD57
:104350000098405C179901E0179930205A46904721
:10436000049805F10105401C04900198401E01903D
:1043700004D12E205A46179990476D1CBAF10001BE
:10438000AAF1010ADDDC05E017F8010B5A4617997E
:1043900090476D1CB8F10001A8F10108F4DC5B4600
:1043A0002146179A0598ABE62D0000002B0000006F
:1043B000200000002DE9F041044600251E46174666
:1043C000880404D405E039462020B0476D1C641EE3
:1043D000F9D52846BDE8F0812DE9F04104460025D5
:1043E0001E469046C80301D5302700E020278804E8
:1043F00004D505E041463846B0476D1C641EF9D52A
:104400002846BDE8F0810A68531C0B6010707047A5
:1044100010B5FCF70DFFBDE81040FCF739BF0000F8
:104420008EB04848FDF752FC46484FF47A71406818
:10443000B0FBF1F0B0F1807F7ED220F07F414FF0F1
:10444000E020491E4161404AF02182F8141D4FF0DE
:104450000009C0F8189007210161FEF77BFE4FF4B8
:10446000FA70FCF7B7FCFEF753FE01210020FEF7BF
:10447000DBF8364CA0680128FCD10020FEF798F844
:104480000120FEF795F80220FEF792F80320FEF7D0
:104490008FF80420FEF78CF80520FEF789F8062037
:1044A000FEF786F80720FEF783F8FFF7B1FFA04676
:1044B000404698F800100529FAD180F800900020B5
:1044C000FEF79AF80320FEF797F80420FEF794F819
:1044D0000120FEF791F80720FEF78EF80520FEF781
:1044E0008BF80620FEF788F80220FEF785F8174AB9
:1044F0001432111F081FFDF7A3FED8F80C00FBF7BC
:104500007FFF06460F46D8F81400FBF779FF0446F4
:104510000D46D8F81000FBF773FF41EC100B8DE847
:10452000F00053EC102B0AA104A8FEF74FFF04A8DB
:10453000FEF7FEFD642000E002E0FCF74BFCB7E76D
:10454000FEE70000600200200FE000E09401002080
:10455000583A202531312E3366202020593A202523
:1045600031312E33662020205A3A202531312E3326
:10457000660A0000000006000100000000000200C2
:10458000000200010004008000080040001000202C
:10459000000020000000200000002000000020009B
:1045A000000020000000200000002000000020008B
:1045B0001201000202000040830440570002010281
:1045C000030109024300020100C032090400000196
:1045D0000202010005240010010524010001042449
:1045E00002020524060001070582030800FF0904F2
:1045F0000100020A00000007050302400000070551
:104600008102400000040309042603530054004DB6
:10461000006900630072006F0065006C0065006354
:1046200000740072006F006E006900630073003256
:1046300003530054004D003300320020005600693F
:104640000072007400750061006C00200043004F90
:10465000004D00200050006F007200740020002008
:1046600000000000000000006E83F9A22915444EEE
:10467000D15727FCC0DD34F5999562DB4190433C6E
:10468000AB6351FEA446000800000020CC010000EE
:104690007C08000868470008CC010020D404000012
:1046A000583B0008011F12480A1F10042162A02D68
:1046B00001020304041D060708090E111202120468
:1046C00012061208120A1A0C27122012402A80170A
:1046D0000119141A03531254124D123302213213CA
:1046E000E90D0C1C08291A040A11F524512AC28567
:1046F000120813B0452B08120F1908324313A933BF
:10470000140871321B0891081AA5041395311B086F
:104710004D101A3D041AF50C1AE9041A1D0C413209
:10472000401305463308041A090832261A2F0829AF
:10473000BA228C33201A1A046729741A514C0916AC
:10474000A41A691C4129920120326440196F120396
:104750003DB81E853F7F6A3C3DBC74733F7B14AE01
:084760003D8195633F0000005C
:040000050800018965
:00000001FF
